{
  "_format": "hh-sol-artifact-1",
  "contractName": "CursedWordGame",
  "sourceName": "contracts/CursedWordGame.sol",
  "abi": [
    {
      "inputs": [],
      "stateMutability": "nonpayable",
      "type": "constructor"
    },
    {
      "anonymous": false,
      "inputs": [
        {
          "indexed": true,
          "internalType": "uint256",
          "name": "id",
          "type": "uint256"
        },
        {
          "indexed": false,
          "internalType": "uint256",
          "name": "guessNumber",
          "type": "uint256"
        },
        {
          "indexed": false,
          "internalType": "address",
          "name": "guesser",
          "type": "address"
        },
        {
          "indexed": false,
          "internalType": "bytes",
          "name": "wordGuessed",
          "type": "bytes"
        }
      ],
      "name": "GuessReceived",
      "type": "event"
    },
    {
      "anonymous": false,
      "inputs": [
        {
          "indexed": true,
          "internalType": "uint256",
          "name": "id",
          "type": "uint256"
        },
        {
          "indexed": false,
          "internalType": "uint256",
          "name": "guessNumber",
          "type": "uint256"
        },
        {
          "indexed": false,
          "internalType": "address",
          "name": "guesser",
          "type": "address"
        },
        {
          "indexed": false,
          "internalType": "bytes",
          "name": "wordGuessed",
          "type": "bytes"
        },
        {
          "indexed": true,
          "internalType": "uint256",
          "name": "result",
          "type": "uint256"
        }
      ],
      "name": "GuessResult",
      "type": "event"
    },
    {
      "inputs": [
        {
          "internalType": "uint256",
          "name": "wordId",
          "type": "uint256"
        },
        {
          "internalType": "bytes",
          "name": "guess",
          "type": "bytes"
        }
      ],
      "name": "attempt",
      "outputs": [],
      "stateMutability": "payable",
      "type": "function"
    },
    {
      "inputs": [],
      "name": "contractOwner",
      "outputs": [
        {
          "internalType": "address",
          "name": "",
          "type": "address"
        }
      ],
      "stateMutability": "view",
      "type": "function"
    },
    {
      "inputs": [],
      "name": "id",
      "outputs": [
        {
          "internalType": "uint256",
          "name": "",
          "type": "uint256"
        }
      ],
      "stateMutability": "view",
      "type": "function"
    },
    {
      "inputs": [],
      "name": "numberOfGuesses",
      "outputs": [
        {
          "internalType": "uint256",
          "name": "",
          "type": "uint256"
        }
      ],
      "stateMutability": "view",
      "type": "function"
    },
    {
      "inputs": [
        {
          "internalType": "uint256",
          "name": "wordId",
          "type": "uint256"
        },
        {
          "internalType": "uint256",
          "name": "guessNumber",
          "type": "uint256"
        },
        {
          "internalType": "address payable",
          "name": "guesser",
          "type": "address"
        },
        {
          "internalType": "bytes",
          "name": "wordGuessed",
          "type": "bytes"
        },
        {
          "internalType": "uint256",
          "name": "response",
          "type": "uint256"
        }
      ],
      "name": "respond_to_guess",
      "outputs": [],
      "stateMutability": "payable",
      "type": "function"
    }
  ],
  "bytecode": "0x608060405234801561001057600080fd5b50600160008190558055600280546001600160a01b03191673cbc4efe8ccf05a9435089e2f8f68622abbb7642e1790556105cc8061004f6000396000f3fe60806040526004361061004a5760003560e01c80634d24e0a71461004f578063af640d0f14610064578063ce606ee01461008d578063e490e3b6146100c5578063ed02ad37146100d8575b600080fd5b61006261005d366004610441565b6100ee565b005b34801561007057600080fd5b5061007a60005481565b6040519081526020015b60405180910390f35b34801561009957600080fd5b506002546100ad906001600160a01b031681565b6040516001600160a01b039091168152602001610084565b6100626100d33660046103fc565b610192565b3480156100e457600080fd5b5061007a60015481565b6002546001600160a01b0316331461013c5760405162461bcd60e51b815260206004820152600c60248201526b155b985d5d1a1bdc9a5e995960a21b60448201526064015b60405180910390fd5b80618235141561014e5761014e610358565b80857f2ffefc2a0a82652b86ff705b3611fcd99a0a4cf166246720bbd734b27581d1a286868660405161018393929190610500565b60405180910390a35050505050565b81600054146101ee5760405162461bcd60e51b815260206004820152602260248201527f5468697320776f72642068617320616c7265616479206265656e20736f6c7665604482015261321760f11b6064820152608401610133565b6101fa3a61afc861054b565b3410156102535760405162461bcd60e51b815260206004820152602160248201527f73656e642065746820666f72206f7261636c6520726573706f6e7365206665656044820152607360f81b6064820152608401610133565b60025460405160009182916001600160a01b039091169047908381818185875af1925050503d80600081146102a4576040519150601f19603f3d011682016040523d82523d6000602084013e6102a9565b606091505b5091509150816102fb5760405162461bcd60e51b815260206004820152601960248201527f4661696c656420746f2073656e64206f7261636c6520657468000000000000006044820152606401610133565b6000547f4744ea29987b6be0c31b96517959090e720d8c7f1d1ab17dba04a333df08a6dd600154338660405161033393929190610500565b60405180910390a2600180600082825461034d9190610533565b909155505050505050565b600160008082825461036a9190610533565b909155505060018055565b600082601f830112610385578081fd5b813567ffffffffffffffff808211156103a0576103a0610580565b604051601f8301601f19908116603f011681019082821181831017156103c8576103c8610580565b816040528381528660208588010111156103e0578485fd5b8360208701602083013792830160200193909352509392505050565b6000806040838503121561040e578182fd5b82359150602083013567ffffffffffffffff81111561042b578182fd5b61043785828601610375565b9150509250929050565b600080600080600060a08688031215610458578081fd5b853594506020860135935060408601356001600160a01b038116811461047c578182fd5b9250606086013567ffffffffffffffff811115610497578182fd5b6104a388828901610375565b95989497509295608001359392505050565b60008151808452815b818110156104da576020818501810151868301820152016104be565b818111156104eb5782602083870101525b50601f01601f19169290920160200192915050565b8381526001600160a01b038316602082015260606040820181905260009061052a908301846104b5565b95945050505050565b600082198211156105465761054661056a565b500190565b60008160001904831182151516156105655761056561056a565b500290565b634e487b7160e01b600052601160045260246000fd5b634e487b7160e01b600052604160045260246000fdfea26469706673582212208a5747a354bf2b4807bb8fd3dcf1863da61b1e75e421ba10cfc75dc12b231ebf64736f6c63430008040033",
  "linkReferences": {},
  "deployedLinkReferences": {}
}