{
  "_format": "hh-sol-artifact-1",
  "contractName": "CursedWordTrophy",
  "sourceName": "contracts/CursedWordV4CoinsNFTs.sol",
  "abi": [
    {
      "inputs": [],
      "stateMutability": "nonpayable",
      "type": "constructor"
    },
    {
      "anonymous": false,
      "inputs": [
        {
          "indexed": true,
          "internalType": "address",
          "name": "owner",
          "type": "address"
        },
        {
          "indexed": true,
          "internalType": "address",
          "name": "approved",
          "type": "address"
        },
        {
          "indexed": true,
          "internalType": "uint256",
          "name": "tokenId",
          "type": "uint256"
        }
      ],
      "name": "Approval",
      "type": "event"
    },
    {
      "anonymous": false,
      "inputs": [
        {
          "indexed": true,
          "internalType": "address",
          "name": "owner",
          "type": "address"
        },
        {
          "indexed": true,
          "internalType": "address",
          "name": "operator",
          "type": "address"
        },
        {
          "indexed": false,
          "internalType": "bool",
          "name": "approved",
          "type": "bool"
        }
      ],
      "name": "ApprovalForAll",
      "type": "event"
    },
    {
      "anonymous": false,
      "inputs": [
        {
          "indexed": true,
          "internalType": "address",
          "name": "previousOwner",
          "type": "address"
        },
        {
          "indexed": true,
          "internalType": "address",
          "name": "newOwner",
          "type": "address"
        }
      ],
      "name": "OwnershipTransferred",
      "type": "event"
    },
    {
      "anonymous": false,
      "inputs": [
        {
          "indexed": true,
          "internalType": "address",
          "name": "from",
          "type": "address"
        },
        {
          "indexed": true,
          "internalType": "address",
          "name": "to",
          "type": "address"
        },
        {
          "indexed": true,
          "internalType": "uint256",
          "name": "tokenId",
          "type": "uint256"
        }
      ],
      "name": "Transfer",
      "type": "event"
    },
    {
      "inputs": [
        {
          "internalType": "address",
          "name": "to",
          "type": "address"
        },
        {
          "internalType": "uint256",
          "name": "tokenId",
          "type": "uint256"
        }
      ],
      "name": "approve",
      "outputs": [],
      "stateMutability": "nonpayable",
      "type": "function"
    },
    {
      "inputs": [
        {
          "internalType": "address",
          "name": "owner",
          "type": "address"
        }
      ],
      "name": "balanceOf",
      "outputs": [
        {
          "internalType": "uint256",
          "name": "",
          "type": "uint256"
        }
      ],
      "stateMutability": "view",
      "type": "function"
    },
    {
      "inputs": [
        {
          "internalType": "uint256",
          "name": "tokenId",
          "type": "uint256"
        }
      ],
      "name": "getApproved",
      "outputs": [
        {
          "internalType": "address",
          "name": "",
          "type": "address"
        }
      ],
      "stateMutability": "view",
      "type": "function"
    },
    {
      "inputs": [
        {
          "internalType": "address",
          "name": "owner",
          "type": "address"
        },
        {
          "internalType": "address",
          "name": "operator",
          "type": "address"
        }
      ],
      "name": "isApprovedForAll",
      "outputs": [
        {
          "internalType": "bool",
          "name": "",
          "type": "bool"
        }
      ],
      "stateMutability": "view",
      "type": "function"
    },
    {
      "inputs": [],
      "name": "name",
      "outputs": [
        {
          "internalType": "string",
          "name": "",
          "type": "string"
        }
      ],
      "stateMutability": "view",
      "type": "function"
    },
    {
      "inputs": [],
      "name": "owner",
      "outputs": [
        {
          "internalType": "address",
          "name": "",
          "type": "address"
        }
      ],
      "stateMutability": "view",
      "type": "function"
    },
    {
      "inputs": [
        {
          "internalType": "uint256",
          "name": "tokenId",
          "type": "uint256"
        }
      ],
      "name": "ownerOf",
      "outputs": [
        {
          "internalType": "address",
          "name": "",
          "type": "address"
        }
      ],
      "stateMutability": "view",
      "type": "function"
    },
    {
      "inputs": [],
      "name": "renounceOwnership",
      "outputs": [],
      "stateMutability": "nonpayable",
      "type": "function"
    },
    {
      "inputs": [
        {
          "internalType": "address",
          "name": "to",
          "type": "address"
        },
        {
          "internalType": "uint256",
          "name": "tokenId",
          "type": "uint256"
        }
      ],
      "name": "safeMint",
      "outputs": [],
      "stateMutability": "nonpayable",
      "type": "function"
    },
    {
      "inputs": [
        {
          "internalType": "address",
          "name": "from",
          "type": "address"
        },
        {
          "internalType": "address",
          "name": "to",
          "type": "address"
        },
        {
          "internalType": "uint256",
          "name": "tokenId",
          "type": "uint256"
        }
      ],
      "name": "safeTransferFrom",
      "outputs": [],
      "stateMutability": "nonpayable",
      "type": "function"
    },
    {
      "inputs": [
        {
          "internalType": "address",
          "name": "from",
          "type": "address"
        },
        {
          "internalType": "address",
          "name": "to",
          "type": "address"
        },
        {
          "internalType": "uint256",
          "name": "tokenId",
          "type": "uint256"
        },
        {
          "internalType": "bytes",
          "name": "_data",
          "type": "bytes"
        }
      ],
      "name": "safeTransferFrom",
      "outputs": [],
      "stateMutability": "nonpayable",
      "type": "function"
    },
    {
      "inputs": [
        {
          "internalType": "address",
          "name": "operator",
          "type": "address"
        },
        {
          "internalType": "bool",
          "name": "approved",
          "type": "bool"
        }
      ],
      "name": "setApprovalForAll",
      "outputs": [],
      "stateMutability": "nonpayable",
      "type": "function"
    },
    {
      "inputs": [
        {
          "internalType": "bytes4",
          "name": "interfaceId",
          "type": "bytes4"
        }
      ],
      "name": "supportsInterface",
      "outputs": [
        {
          "internalType": "bool",
          "name": "",
          "type": "bool"
        }
      ],
      "stateMutability": "view",
      "type": "function"
    },
    {
      "inputs": [],
      "name": "symbol",
      "outputs": [
        {
          "internalType": "string",
          "name": "",
          "type": "string"
        }
      ],
      "stateMutability": "view",
      "type": "function"
    },
    {
      "inputs": [
        {
          "internalType": "uint256",
          "name": "tokenId",
          "type": "uint256"
        }
      ],
      "name": "tokenURI",
      "outputs": [
        {
          "internalType": "string",
          "name": "",
          "type": "string"
        }
      ],
      "stateMutability": "view",
      "type": "function"
    },
    {
      "inputs": [
        {
          "internalType": "address",
          "name": "from",
          "type": "address"
        },
        {
          "internalType": "address",
          "name": "to",
          "type": "address"
        },
        {
          "internalType": "uint256",
          "name": "tokenId",
          "type": "uint256"
        }
      ],
      "name": "transferFrom",
      "outputs": [],
      "stateMutability": "nonpayable",
      "type": "function"
    },
    {
      "inputs": [
        {
          "internalType": "address",
          "name": "newOwner",
          "type": "address"
        }
      ],
      "name": "transferOwnership",
      "outputs": [],
      "stateMutability": "nonpayable",
      "type": "function"
    }
  ],
  "bytecode": "0x60806040523480156200001157600080fd5b50604080518082018252601081526f437572736564576f726454726f70687960801b60208083019182528351808501909452600384526210d5d560ea1b9084015281519192916200006591600091620000f4565b5080516200007b906001906020840190620000f4565b50505062000098620000926200009e60201b60201c565b620000a2565b620001d7565b3390565b600680546001600160a01b038381166001600160a01b0319831681179093556040519116919082907f8be0079c531659141344cd1fd0a4f28419497f9722a3daafe3b4186f6b6457e090600090a35050565b82805462000102906200019a565b90600052602060002090601f01602090048101928262000126576000855562000171565b82601f106200014157805160ff191683800117855562000171565b8280016001018555821562000171579182015b828111156200017157825182559160200191906001019062000154565b506200017f92915062000183565b5090565b5b808211156200017f576000815560010162000184565b600181811c90821680620001af57607f821691505b60208210811415620001d157634e487b7160e01b600052602260045260246000fd5b50919050565b6116a880620001e76000396000f3fe608060405234801561001057600080fd5b506004361061010b5760003560e01c8063715018a6116100a2578063a22cb46511610071578063a22cb4651461021b578063b88d4fde1461022e578063c87b56dd14610241578063e985e9c514610254578063f2fde38b1461029057600080fd5b8063715018a6146101e75780638da5cb5b146101ef57806395d89b4114610200578063a14481941461020857600080fd5b806323b872dd116100de57806323b872dd1461018d57806342842e0e146101a05780636352211e146101b357806370a08231146101c657600080fd5b806301ffc9a71461011057806306fdde0314610138578063081812fc1461014d578063095ea7b314610178575b600080fd5b61012361011e36600461134c565b6102a3565b60405190151581526020015b60405180910390f35b6101406102f5565b60405161012f9190611434565b61016061015b366004611384565b610387565b6040516001600160a01b03909116815260200161012f565b61018b610186366004611323565b610421565b005b61018b61019b3660046111d9565b610537565b61018b6101ae3660046111d9565b610568565b6101606101c1366004611384565b610583565b6101d96101d436600461118d565b6105fa565b60405190815260200161012f565b61018b610681565b6006546001600160a01b0316610160565b6101406106b7565b61018b610216366004611323565b6106c6565b61018b6102293660046112e9565b610736565b61018b61023c366004611214565b610741565b61014061024f366004611384565b610779565b6101236102623660046111a7565b6001600160a01b03918216600090815260056020908152604080832093909416825291909152205460ff1690565b61018b61029e36600461118d565b610861565b60006001600160e01b031982166380ac58cd60e01b14806102d457506001600160e01b03198216635b5e139f60e01b145b806102ef57506301ffc9a760e01b6001600160e01b03198316145b92915050565b606060008054610304906115b0565b80601f0160208091040260200160405190810160405280929190818152602001828054610330906115b0565b801561037d5780601f106103525761010080835404028352916020019161037d565b820191906000526020600020905b81548152906001019060200180831161036057829003601f168201915b5050505050905090565b6000818152600260205260408120546001600160a01b03166104055760405162461bcd60e51b815260206004820152602c60248201527f4552433732313a20617070726f76656420717565727920666f72206e6f6e657860448201526b34b9ba32b73a103a37b5b2b760a11b60648201526084015b60405180910390fd5b506000908152600460205260409020546001600160a01b031690565b600061042c82610583565b9050806001600160a01b0316836001600160a01b0316141561049a5760405162461bcd60e51b815260206004820152602160248201527f4552433732313a20617070726f76616c20746f2063757272656e74206f776e656044820152603960f91b60648201526084016103fc565b336001600160a01b03821614806104b657506104b68133610262565b6105285760405162461bcd60e51b815260206004820152603860248201527f4552433732313a20617070726f76652063616c6c6572206973206e6f74206f7760448201527f6e6572206e6f7220617070726f76656420666f7220616c6c000000000000000060648201526084016103fc565b61053283836108fc565b505050565b610541338261096a565b61055d5760405162461bcd60e51b81526004016103fc906114f0565b610532838383610a61565b61053283838360405180602001604052806000815250610741565b6000818152600260205260408120546001600160a01b0316806102ef5760405162461bcd60e51b815260206004820152602960248201527f4552433732313a206f776e657220717565727920666f72206e6f6e657869737460448201526832b73a103a37b5b2b760b91b60648201526084016103fc565b60006001600160a01b0382166106655760405162461bcd60e51b815260206004820152602a60248201527f4552433732313a2062616c616e636520717565727920666f7220746865207a65604482015269726f206164647265737360b01b60648201526084016103fc565b506001600160a01b031660009081526003602052604090205490565b6006546001600160a01b031633146106ab5760405162461bcd60e51b81526004016103fc906114bb565b6106b56000610c01565b565b606060018054610304906115b0565b6006546001600160a01b031633146106f05760405162461bcd60e51b81526004016103fc906114bb565b6107286040518060400160405280601681526020017501e9e9ea1abaa1e9e9e9027232a1026b4b73a32b21d160551b81525082610c53565b6107328282610c98565b5050565b610732338383610cb2565b61074b338361096a565b6107675760405162461bcd60e51b81526004016103fc906114f0565b61077384848484610d81565b50505050565b6000818152600260205260409020546060906001600160a01b03166107f85760405162461bcd60e51b815260206004820152602f60248201527f4552433732314d657461646174613a2055524920717565727920666f72206e6f60448201526e3732bc34b9ba32b73a103a37b5b2b760891b60648201526084016103fc565b600061080f60408051602081019091526000815290565b9050600081511161082f576040518060200160405280600081525061085a565b8061083984610db4565b60405160200161084a9291906113c8565b6040516020818303038152906040525b9392505050565b6006546001600160a01b0316331461088b5760405162461bcd60e51b81526004016103fc906114bb565b6001600160a01b0381166108f05760405162461bcd60e51b815260206004820152602660248201527f4f776e61626c653a206e6577206f776e657220697320746865207a65726f206160448201526564647265737360d01b60648201526084016103fc565b6108f981610c01565b50565b600081815260046020526040902080546001600160a01b0319166001600160a01b038416908117909155819061093182610583565b6001600160a01b03167f8c5be1e5ebec7d5bd14f71427d1e84f3dd0314c0f7b2291e5b200ac8c7c3b92560405160405180910390a45050565b6000818152600260205260408120546001600160a01b03166109e35760405162461bcd60e51b815260206004820152602c60248201527f4552433732313a206f70657261746f7220717565727920666f72206e6f6e657860448201526b34b9ba32b73a103a37b5b2b760a11b60648201526084016103fc565b60006109ee83610583565b9050806001600160a01b0316846001600160a01b03161480610a295750836001600160a01b0316610a1e84610387565b6001600160a01b0316145b80610a5957506001600160a01b0380821660009081526005602090815260408083209388168352929052205460ff165b949350505050565b826001600160a01b0316610a7482610583565b6001600160a01b031614610adc5760405162461bcd60e51b815260206004820152602960248201527f4552433732313a207472616e73666572206f6620746f6b656e2074686174206960448201526839903737ba1037bbb760b91b60648201526084016103fc565b6001600160a01b038216610b3e5760405162461bcd60e51b8152602060048201526024808201527f4552433732313a207472616e7366657220746f20746865207a65726f206164646044820152637265737360e01b60648201526084016103fc565b610b496000826108fc565b6001600160a01b0383166000908152600360205260408120805460019290610b7290849061156d565b90915550506001600160a01b0382166000908152600360205260408120805460019290610ba0908490611541565b909155505060008181526002602052604080822080546001600160a01b0319166001600160a01b0386811691821790925591518493918716917fddf252ad1be2c89b69c2b068fc378daa952ba7f163c4a11628f55a4df523b3ef91a4505050565b600680546001600160a01b038381166001600160a01b0319831681179093556040519116919082907f8be0079c531659141344cd1fd0a4f28419497f9722a3daafe3b4186f6b6457e090600090a35050565b6107328282604051602401610c69929190611447565b60408051601f198184030181529190526020810180516001600160e01b03166309710a9d60e41b179052610ece565b610732828260405180602001604052806000815250610eef565b816001600160a01b0316836001600160a01b03161415610d145760405162461bcd60e51b815260206004820152601960248201527f4552433732313a20617070726f766520746f2063616c6c65720000000000000060448201526064016103fc565b6001600160a01b03838116600081815260056020908152604080832094871680845294825291829020805460ff191686151590811790915591519182527f17307eab39ab6107e8899845ad3d59bd9653f200f220920489ca2b5937696c31910160405180910390a3505050565b610d8c848484610a61565b610d9884848484610f22565b6107735760405162461bcd60e51b81526004016103fc90611469565b606081610dd85750506040805180820190915260018152600360fc1b602082015290565b8160005b8115610e025780610dec816115eb565b9150610dfb9050600a83611559565b9150610ddc565b60008167ffffffffffffffff811115610e2b57634e487b7160e01b600052604160045260246000fd5b6040519080825280601f01601f191660200182016040528015610e55576020820181803683370190505b5090505b8415610a5957610e6a60018361156d565b9150610e77600a86611606565b610e82906030611541565b60f81b818381518110610ea557634e487b7160e01b600052603260045260246000fd5b60200101906001600160f81b031916908160001a905350610ec7600a86611559565b9450610e59565b80516a636f6e736f6c652e6c6f67602083016000808483855afa5050505050565b610ef9838361102f565b610f066000848484610f22565b6105325760405162461bcd60e51b81526004016103fc90611469565b60006001600160a01b0384163b1561102457604051630a85bd0160e11b81526001600160a01b0385169063150b7a0290610f669033908990889088906004016113f7565b602060405180830381600087803b158015610f8057600080fd5b505af1925050508015610fb0575060408051601f3d908101601f19168201909252610fad91810190611368565b60015b61100a573d808015610fde576040519150601f19603f3d011682016040523d82523d6000602084013e610fe3565b606091505b5080516110025760405162461bcd60e51b81526004016103fc90611469565b805181602001fd5b6001600160e01b031916630a85bd0160e11b149050610a59565b506001949350505050565b6001600160a01b0382166110855760405162461bcd60e51b815260206004820181905260248201527f4552433732313a206d696e7420746f20746865207a65726f206164647265737360448201526064016103fc565b6000818152600260205260409020546001600160a01b0316156110ea5760405162461bcd60e51b815260206004820152601c60248201527f4552433732313a20746f6b656e20616c7265616479206d696e7465640000000060448201526064016103fc565b6001600160a01b0382166000908152600360205260408120805460019290611113908490611541565b909155505060008181526002602052604080822080546001600160a01b0319166001600160a01b03861690811790915590518392907fddf252ad1be2c89b69c2b068fc378daa952ba7f163c4a11628f55a4df523b3ef908290a45050565b80356001600160a01b038116811461118857600080fd5b919050565b60006020828403121561119e578081fd5b61085a82611171565b600080604083850312156111b9578081fd5b6111c283611171565b91506111d060208401611171565b90509250929050565b6000806000606084860312156111ed578081fd5b6111f684611171565b925061120460208501611171565b9150604084013590509250925092565b60008060008060808587031215611229578081fd5b61123285611171565b935061124060208601611171565b925060408501359150606085013567ffffffffffffffff80821115611263578283fd5b818701915087601f830112611276578283fd5b81358181111561128857611288611646565b604051601f8201601f19908116603f011681019083821181831017156112b0576112b0611646565b816040528281528a60208487010111156112c8578586fd5b82602086016020830137918201602001949094529598949750929550505050565b600080604083850312156112fb578182fd5b61130483611171565b915060208301358015158114611318578182fd5b809150509250929050565b60008060408385031215611335578182fd5b61133e83611171565b946020939093013593505050565b60006020828403121561135d578081fd5b813561085a8161165c565b600060208284031215611379578081fd5b815161085a8161165c565b600060208284031215611395578081fd5b5035919050565b600081518084526113b4816020860160208601611584565b601f01601f19169290920160200192915050565b600083516113da818460208801611584565b8351908301906113ee818360208801611584565b01949350505050565b6001600160a01b038581168252841660208201526040810183905260806060820181905260009061142a9083018461139c565b9695505050505050565b60208152600061085a602083018461139c565b60408152600061145a604083018561139c565b90508260208301529392505050565b60208082526032908201527f4552433732313a207472616e7366657220746f206e6f6e20455243373231526560408201527131b2b4bb32b91034b6b83632b6b2b73a32b960711b606082015260800190565b6020808252818101527f4f776e61626c653a2063616c6c6572206973206e6f7420746865206f776e6572604082015260600190565b60208082526031908201527f4552433732313a207472616e736665722063616c6c6572206973206e6f74206f6040820152701ddb995c881b9bdc88185c1c1c9bdd9959607a1b606082015260800190565b600082198211156115545761155461161a565b500190565b60008261156857611568611630565b500490565b60008282101561157f5761157f61161a565b500390565b60005b8381101561159f578181015183820152602001611587565b838111156107735750506000910152565b600181811c908216806115c457607f821691505b602082108114156115e557634e487b7160e01b600052602260045260246000fd5b50919050565b60006000198214156115ff576115ff61161a565b5060010190565b60008261161557611615611630565b500690565b634e487b7160e01b600052601160045260246000fd5b634e487b7160e01b600052601260045260246000fd5b634e487b7160e01b600052604160045260246000fd5b6001600160e01b0319811681146108f957600080fdfea26469706673582212205cc2407aa504d9d980b2d23a7f885a6500eedf8387da8a15c622c9327caa2c4d64736f6c63430008040033",
  "linkReferences": {},
  "deployedLinkReferences": {}
}