{
  "_format": "hh-sol-artifact-1",
  "contractName": "TestCWGU",
  "sourceName": "contracts/TESTCWCGpgradeable.sol",
  "abi": [
    {
      "inputs": [],
      "stateMutability": "nonpayable",
      "type": "constructor"
    },
    {
      "anonymous": false,
      "inputs": [
        {
          "indexed": true,
          "internalType": "uint256",
          "name": "id",
          "type": "uint256"
        },
        {
          "indexed": false,
          "internalType": "uint256",
          "name": "guessNumber",
          "type": "uint256"
        },
        {
          "indexed": false,
          "internalType": "address",
          "name": "guesser",
          "type": "address"
        },
        {
          "indexed": false,
          "internalType": "bytes",
          "name": "wordGuessed",
          "type": "bytes"
        }
      ],
      "name": "GuessReceived",
      "type": "event"
    },
    {
      "anonymous": false,
      "inputs": [
        {
          "indexed": true,
          "internalType": "uint256",
          "name": "id",
          "type": "uint256"
        },
        {
          "indexed": false,
          "internalType": "uint256",
          "name": "guessNumber",
          "type": "uint256"
        },
        {
          "indexed": false,
          "internalType": "address",
          "name": "guesser",
          "type": "address"
        },
        {
          "indexed": false,
          "internalType": "bytes",
          "name": "wordGuessed",
          "type": "bytes"
        },
        {
          "indexed": true,
          "internalType": "uint256",
          "name": "result",
          "type": "uint256"
        }
      ],
      "name": "GuessResult",
      "type": "event"
    },
    {
      "inputs": [
        {
          "internalType": "uint256",
          "name": "wordId",
          "type": "uint256"
        },
        {
          "internalType": "bytes",
          "name": "guess",
          "type": "bytes"
        }
      ],
      "name": "attempt",
      "outputs": [],
      "stateMutability": "payable",
      "type": "function"
    },
    {
      "inputs": [],
      "name": "contractOwner",
      "outputs": [
        {
          "internalType": "address",
          "name": "",
          "type": "address"
        }
      ],
      "stateMutability": "view",
      "type": "function"
    },
    {
      "inputs": [],
      "name": "id",
      "outputs": [
        {
          "internalType": "uint256",
          "name": "",
          "type": "uint256"
        }
      ],
      "stateMutability": "view",
      "type": "function"
    },
    {
      "inputs": [],
      "name": "numberOfGuesses",
      "outputs": [
        {
          "internalType": "uint256",
          "name": "",
          "type": "uint256"
        }
      ],
      "stateMutability": "view",
      "type": "function"
    },
    {
      "inputs": [
        {
          "internalType": "uint256",
          "name": "wordId",
          "type": "uint256"
        },
        {
          "internalType": "uint256",
          "name": "guessNumber",
          "type": "uint256"
        },
        {
          "internalType": "address payable",
          "name": "guesser",
          "type": "address"
        },
        {
          "internalType": "bytes",
          "name": "wordGuessed",
          "type": "bytes"
        },
        {
          "internalType": "uint256",
          "name": "response",
          "type": "uint256"
        }
      ],
      "name": "respond_to_guess",
      "outputs": [],
      "stateMutability": "payable",
      "type": "function"
    }
  ],
  "bytecode": "0x608060405234801561001057600080fd5b50600160008190558055600280546001600160a01b03191673cbc4efe8ccf05a9435089e2f8f68622abbb7642e17905561059b8061004f6000396000f3fe60806040526004361061004a5760003560e01c80634d24e0a71461004f578063af640d0f14610064578063ce606ee01461008d578063e490e3b6146100c5578063ed02ad37146100d8575b600080fd5b61006261005d366004610439565b6100ee565b005b34801561007057600080fd5b5061007a60005481565b6040519081526020015b60405180910390f35b34801561009957600080fd5b506002546100ad906001600160a01b031681565b6040516001600160a01b039091168152602001610084565b6100626100d33660046103f4565b610192565b3480156100e457600080fd5b5061007a60015481565b6002546001600160a01b0316331461013c5760405162461bcd60e51b815260206004820152600c60248201526b155b985d5d1a1bdc9a5e995960a21b60448201526064015b60405180910390fd5b80618235141561014e5761014e610350565b80857f2ffefc2a0a82652b86ff705b3611fcd99a0a4cf166246720bbd734b27581d1a2868686604051610183939291906104f8565b60405180910390a35050505050565b81600054146101ee5760405162461bcd60e51b815260206004820152602260248201527f5468697320776f72642068617320616c7265616479206265656e20736f6c7665604482015261321760f11b6064820152608401610133565b633b9aca00341161024b5760405162461bcd60e51b815260206004820152602160248201527f73656e642065746820666f72206f7261636c6520726573706f6e7365206665656044820152607360f81b6064820152608401610133565b60025460405160009182916001600160a01b039091169047908381818185875af1925050503d806000811461029c576040519150601f19603f3d011682016040523d82523d6000602084013e6102a1565b606091505b5091509150816102f35760405162461bcd60e51b815260206004820152601960248201527f4661696c656420746f2073656e64206f7261636c6520657468000000000000006044820152606401610133565b6000547f4744ea29987b6be0c31b96517959090e720d8c7f1d1ab17dba04a333df08a6dd600154338660405161032b939291906104f8565b60405180910390a26001806000828254610345919061052b565b909155505050505050565b6001600080828254610362919061052b565b909155505060018055565b600082601f83011261037d578081fd5b813567ffffffffffffffff808211156103985761039861054f565b604051601f8301601f19908116603f011681019082821181831017156103c0576103c061054f565b816040528381528660208588010111156103d8578485fd5b8360208701602083013792830160200193909352509392505050565b60008060408385031215610406578182fd5b82359150602083013567ffffffffffffffff811115610423578182fd5b61042f8582860161036d565b9150509250929050565b600080600080600060a08688031215610450578081fd5b853594506020860135935060408601356001600160a01b0381168114610474578182fd5b9250606086013567ffffffffffffffff81111561048f578182fd5b61049b8882890161036d565b95989497509295608001359392505050565b60008151808452815b818110156104d2576020818501810151868301820152016104b6565b818111156104e35782602083870101525b50601f01601f19169290920160200192915050565b8381526001600160a01b0383166020820152606060408201819052600090610522908301846104ad565b95945050505050565b6000821982111561054a57634e487b7160e01b81526011600452602481fd5b500190565b634e487b7160e01b600052604160045260246000fdfea264697066735822122046c430057024b77d0e883a9970eb848295ea6b1b931431aa871553a315f398bd64736f6c63430008040033",
  "linkReferences": {},
  "deployedLinkReferences": {}
}