{
  "_format": "hh-sol-artifact-1",
  "contractName": "CursedWordV1",
  "sourceName": "contracts/CursedWordV1.sol",
  "abi": [
    {
      "inputs": [
        {
          "internalType": "bytes",
          "name": "firstWord",
          "type": "bytes"
        }
      ],
      "stateMutability": "nonpayable",
      "type": "constructor"
    },
    {
      "anonymous": false,
      "inputs": [
        {
          "indexed": true,
          "internalType": "uint256",
          "name": "wordNumber",
          "type": "uint256"
        },
        {
          "indexed": false,
          "internalType": "uint256",
          "name": "guessNumber",
          "type": "uint256"
        },
        {
          "indexed": false,
          "internalType": "address",
          "name": "guesser",
          "type": "address"
        },
        {
          "indexed": false,
          "internalType": "bytes",
          "name": "wordGuessed",
          "type": "bytes"
        }
      ],
      "name": "GuessReceived",
      "type": "event"
    },
    {
      "anonymous": false,
      "inputs": [
        {
          "indexed": true,
          "internalType": "uint256",
          "name": "wordNumber",
          "type": "uint256"
        },
        {
          "indexed": false,
          "internalType": "uint256",
          "name": "guessNumber",
          "type": "uint256"
        },
        {
          "indexed": false,
          "internalType": "address",
          "name": "guesser",
          "type": "address"
        },
        {
          "indexed": false,
          "internalType": "bytes",
          "name": "wordGuessed",
          "type": "bytes"
        },
        {
          "indexed": false,
          "internalType": "uint16",
          "name": "result",
          "type": "uint16"
        }
      ],
      "name": "GuessResult",
      "type": "event"
    },
    {
      "inputs": [
        {
          "internalType": "bytes",
          "name": "guess",
          "type": "bytes"
        }
      ],
      "name": "attempt",
      "outputs": [],
      "stateMutability": "payable",
      "type": "function"
    },
    {
      "inputs": [],
      "name": "claim_riches",
      "outputs": [],
      "stateMutability": "payable",
      "type": "function"
    },
    {
      "inputs": [],
      "name": "gameIsActive",
      "outputs": [
        {
          "internalType": "bool",
          "name": "",
          "type": "bool"
        }
      ],
      "stateMutability": "view",
      "type": "function"
    },
    {
      "inputs": [],
      "name": "getGuessInfoArray",
      "outputs": [
        {
          "components": [
            {
              "internalType": "address",
              "name": "guesser",
              "type": "address"
            },
            {
              "internalType": "bytes",
              "name": "guess",
              "type": "bytes"
            },
            {
              "internalType": "uint256",
              "name": "wordNumber",
              "type": "uint256"
            },
            {
              "internalType": "uint256",
              "name": "guessNumber",
              "type": "uint256"
            }
          ],
          "internalType": "struct GuessInfo[]",
          "name": "",
          "type": "tuple[]"
        }
      ],
      "stateMutability": "view",
      "type": "function"
    },
    {
      "inputs": [],
      "name": "getResultListArray",
      "outputs": [
        {
          "components": [
            {
              "internalType": "bytes",
              "name": "guess",
              "type": "bytes"
            },
            {
              "internalType": "uint16",
              "name": "response",
              "type": "uint16"
            }
          ],
          "internalType": "struct GuessResultStruct[]",
          "name": "",
          "type": "tuple[]"
        }
      ],
      "stateMutability": "view",
      "type": "function"
    },
    {
      "inputs": [
        {
          "internalType": "uint256",
          "name": "",
          "type": "uint256"
        }
      ],
      "name": "guessList",
      "outputs": [
        {
          "internalType": "address",
          "name": "guesser",
          "type": "address"
        },
        {
          "internalType": "bytes",
          "name": "guess",
          "type": "bytes"
        },
        {
          "internalType": "uint256",
          "name": "wordNumber",
          "type": "uint256"
        },
        {
          "internalType": "uint256",
          "name": "guessNumber",
          "type": "uint256"
        }
      ],
      "stateMutability": "view",
      "type": "function"
    },
    {
      "inputs": [],
      "name": "numberOfGuesses",
      "outputs": [
        {
          "internalType": "uint256",
          "name": "",
          "type": "uint256"
        }
      ],
      "stateMutability": "view",
      "type": "function"
    },
    {
      "inputs": [
        {
          "internalType": "uint256",
          "name": "guessNumber",
          "type": "uint256"
        },
        {
          "internalType": "address",
          "name": "guesser",
          "type": "address"
        },
        {
          "internalType": "bytes",
          "name": "wordGuessed",
          "type": "bytes"
        },
        {
          "internalType": "uint16",
          "name": "response",
          "type": "uint16"
        }
      ],
      "name": "respond_to_guess",
      "outputs": [],
      "stateMutability": "nonpayable",
      "type": "function"
    },
    {
      "inputs": [
        {
          "internalType": "uint256",
          "name": "",
          "type": "uint256"
        }
      ],
      "name": "resultList",
      "outputs": [
        {
          "internalType": "bytes",
          "name": "guess",
          "type": "bytes"
        },
        {
          "internalType": "uint16",
          "name": "response",
          "type": "uint16"
        }
      ],
      "stateMutability": "view",
      "type": "function"
    },
    {
      "inputs": [],
      "name": "wordNumber",
      "outputs": [
        {
          "internalType": "uint256",
          "name": "",
          "type": "uint256"
        }
      ],
      "stateMutability": "view",
      "type": "function"
    }
  ],
  "bytecode": "0x60806040523480156200001157600080fd5b506040516200110b3803806200110b833981016040819052620000349162000062565b8051602090910120600090815560055560016004556003805460ff60a01b1916600160a01b1790556200014e565b6000602080838503121562000075578182fd5b82516001600160401b03808211156200008c578384fd5b818501915085601f830112620000a0578384fd5b815181811115620000b557620000b562000138565b604051601f8201601f19908116603f01168101908382118183101715620000e057620000e062000138565b816040528281528886848701011115620000f8578687fd5b8693505b828410156200011b5784840186015181850187015292850192620000fc565b828411156200012c57868684830101525b98975050505050505050565b634e487b7160e01b600052604160045260246000fd5b610fad806200015e6000396000f3fe6080604052600436106100915760003560e01c8063e2784c3a11610059578063e2784c3a1461013e578063e3916f671461016f578063ed02ad3714610191578063f5cb48ad146101a7578063f690af1d146101c957600080fd5b80630ff37c8b1461009657806393c09385146100cf5780639f7c46f0146100d9578063a95d7aa614610107578063d4b6df2b1461011a575b600080fd5b3480156100a257600080fd5b506100b66100b1366004610bbc565b6101e9565b6040516100c69493929190610c9a565b60405180910390f35b6100d76102b7565b005b3480156100e557600080fd5b506100f96100f4366004610bbc565b610386565b6040516100c6929190610dd1565b6100d7610115366004610b81565b610446565b34801561012657600080fd5b5061013060045481565b6040519081526020016100c6565b34801561014a57600080fd5b5060035461015f90600160a01b900460ff1681565b60405190151581526020016100c6565b34801561017b57600080fd5b5061018461061b565b6040516100c69190610cd1565b34801561019d57600080fd5b5061013060055481565b3480156101b357600080fd5b506101bc610736565b6040516100c69190610d66565b3480156101d557600080fd5b506100d76101e4366004610bd4565b61082c565b600181815481106101f957600080fd5b6000918252602090912060049091020180546001820180546001600160a01b0390921693509061022890610eed565b80601f016020809104026020016040519081016040528092919081815260200182805461025490610eed565b80156102a15780601f10610276576101008083540402835291602001916102a1565b820191906000526020600020905b81548152906001019060200180831161028457829003601f168201915b5050505050908060020154908060030154905084565b6003546001600160a01b03163314156103635760405160009033904780156108fc029184818181858888f193505050509050806103325760405162461bcd60e51b81526020600482015260146024820152732330b4b632b2103a379039b2b7321022ba3432b960611b60448201526064015b60405180910390fd5b6103606040518060400160405280600c81526020016b5761732069742073656e743f60a01b81525082610973565b50565b610384604051806060016040528060398152602001610f3f603991396109bc565b565b6002818154811061039657600080fd5b90600052602060002090600202016000915090508060000180546103b990610eed565b80601f01602080910402602001604051908101604052809291908181526020018280546103e590610eed565b80156104325780601f1061040757610100808354040283529160200191610432565b820191906000526020600020905b81548152906001019060200180831161041557829003601f168201915b5050506001909301549192505061ffff1682565b600354600160a01b900460ff1615156001146104ba5760405162461bcd60e51b815260206004820152602d60248201527f47616d652068617320656e6465642e2057696e6e65722068617320776f6e2e2060448201526c29ba37b810383630bcb4b7339760991b6064820152608401610329565b6001600560008282546104cd9190610ec9565b909155505060408051608081018252338152602080820184815260048054948401949094526005546060840152600180548082018255600091909152835194027fb10e2d527612073b26eecdfd717e6a320cf44b4afac2b0732d9fcbe2b7fa0cf6810180546001600160a01b03969096166001600160a01b03199096169590951785559051805193949361058a937fb10e2d527612073b26eecdfd717e6a320cf44b4afac2b0732d9fcbe2b7fa0cf7909301929190910190610a61565b50604082015181600201556060820151816003015550506105d8604051806040016040528060138152602001720273ab6b132b91037b31023bab2b9b9b2b99d1606d1b8152506005546109ff565b6004547f4744ea29987b6be0c31b96517959090e720d8c7f1d1ab17dba04a333df08a6dd600554338460405161061093929190610e57565b60405180910390a250565b60606001805480602002602001604051908101604052809291908181526020016000905b8282101561072d57600084815260209081902060408051608081019091526004850290910180546001600160a01b03168252600181018054929391929184019161068890610eed565b80601f01602080910402602001604051908101604052809291908181526020018280546106b490610eed565b80156107015780601f106106d657610100808354040283529160200191610701565b820191906000526020600020905b8154815290600101906020018083116106e457829003601f168201915b50505050508152602001600282015481526020016003820154815250508152602001906001019061063f565b50505050905090565b60606002805480602002602001604051908101604052809291908181526020016000905b8282101561072d578382906000526020600020906002020160405180604001604052908160008201805461078d90610eed565b80601f01602080910402602001604051908101604052809291908181526020018280546107b990610eed565b80156108065780601f106107db57610100808354040283529160200191610806565b820191906000526020600020905b8154815290600101906020018083116107e957829003601f168201915b505050918352505060019182015461ffff1660209182015291835292909201910161075a565b6108656040518060400160405280601381526020017202932b9b837b739b2903932b1b2b4bb32b21d1606d1b8152508261ffff166109ff565b8061ffff1661823514156108a9576108a96040518060400160405280601581526020017454686520776f72642077617320677565737365642160581b8152506109bc565b6040805180820190915282815261ffff821660208083019190915260028054600181018255600082905283518051919092027f405787fa12a823e0f2b7631cc41b3ba8828b3321ca811111fa75cd3aa3bb5ace019261090c928492910190610a61565b50602091909101516001909101805461ffff191661ffff9092169190911790556004546040517f24b390cd829042ea5cd3b2edd4ae9fcbee53358018dfccdaceaa27a9d8d9143290610965908790879087908790610e8a565b60405180910390a250505050565b6109b88282604051602401610989929190610e11565b60408051601f198184030181529190526020810180516001600160e01b031663c3b5563560e01b179052610a40565b5050565b610360816040516024016109d09190610df7565b60408051601f198184030181529190526020810180516001600160e01b031663104c13eb60e21b179052610a40565b6109b88282604051602401610a15929190610e35565b60408051601f198184030181529190526020810180516001600160e01b03166309710a9d60e41b1790525b80516a636f6e736f6c652e6c6f67602083016000808483855afa5050505050565b828054610a6d90610eed565b90600052602060002090601f016020900481019282610a8f5760008555610ad5565b82601f10610aa857805160ff1916838001178555610ad5565b82800160010185558215610ad5579182015b82811115610ad5578251825591602001919060010190610aba565b50610ae1929150610ae5565b5090565b5b80821115610ae15760008155600101610ae6565b600082601f830112610b0a578081fd5b813567ffffffffffffffff80821115610b2557610b25610f28565b604051601f8301601f19908116603f01168101908282118183101715610b4d57610b4d610f28565b81604052838152866020858801011115610b65578485fd5b8360208701602083013792830160200193909352509392505050565b600060208284031215610b92578081fd5b813567ffffffffffffffff811115610ba8578182fd5b610bb484828501610afa565b949350505050565b600060208284031215610bcd578081fd5b5035919050565b60008060008060808587031215610be9578283fd5b8435935060208501356001600160a01b0381168114610c06578384fd5b9250604085013567ffffffffffffffff811115610c21578283fd5b610c2d87828801610afa565b925050606085013561ffff81168114610c44578182fd5b939692955090935050565b60008151808452815b81811015610c7457602081850181015186830182015201610c58565b81811115610c855782602083870101525b50601f01601f19169290920160200192915050565b6001600160a01b0385168152608060208201819052600090610cbe90830186610c4f565b6040830194909452506060015292915050565b60006020808301818452808551808352604092508286019150828160051b870101848801865b83811015610d5857888303603f19018552815180516001600160a01b0316845287810151608089860181905290610d3082870182610c4f565b838a0151878b0152606093840151939096019290925250509386019390860190600101610cf7565b509098975050505050505050565b60006020808301818452808551808352604092508286019150828160051b870101848801865b83811015610d5857888303603f1901855281518051878552610db088860182610c4f565b9189015161ffff169489019490945294870194925090860190600101610d8c565b604081526000610de46040830185610c4f565b905061ffff831660208301529392505050565b602081526000610e0a6020830184610c4f565b9392505050565b604081526000610e246040830185610c4f565b905082151560208301529392505050565b604081526000610e486040830185610c4f565b90508260208301529392505050565b8381526001600160a01b0383166020820152606060408201819052600090610e8190830184610c4f565b95945050505050565b8481526001600160a01b0384166020820152608060408201819052600090610eb490830185610c4f565b905061ffff8316606083015295945050505050565b60008219821115610ee857634e487b7160e01b81526011600452602481fd5b500190565b600181811c90821680610f0157607f821691505b60208210811415610f2257634e487b7160e01b600052602260045260246000fd5b50919050565b634e487b7160e01b600052604160045260246000fdfe596f7520617265206e6f74207468652077696e6e657220616e6420796f752063616e6e6f74206861766520616c6c20746865206d6f6e65792ea2646970667358221220e97eaa2fbfb0f60d0c6e195b6da8f1be543a86e63dbb16886d2bdfd3fff54f9964736f6c63430008040033",
  "linkReferences": {},
  "deployedLinkReferences": {}
}