{
  "_format": "hh-sol-artifact-1",
  "contractName": "CursedWordV4",
  "sourceName": "contracts/CursedWordV4CoinsNFTs.sol",
  "abi": [
    {
      "inputs": [],
      "stateMutability": "nonpayable",
      "type": "constructor"
    },
    {
      "anonymous": false,
      "inputs": [
        {
          "indexed": true,
          "internalType": "uint256",
          "name": "id",
          "type": "uint256"
        },
        {
          "indexed": false,
          "internalType": "uint256",
          "name": "guessNumber",
          "type": "uint256"
        },
        {
          "indexed": false,
          "internalType": "address",
          "name": "guesser",
          "type": "address"
        },
        {
          "indexed": false,
          "internalType": "bytes",
          "name": "wordGuessed",
          "type": "bytes"
        }
      ],
      "name": "GuessReceived",
      "type": "event"
    },
    {
      "anonymous": false,
      "inputs": [
        {
          "indexed": true,
          "internalType": "uint256",
          "name": "id",
          "type": "uint256"
        },
        {
          "indexed": false,
          "internalType": "uint256",
          "name": "guessNumber",
          "type": "uint256"
        },
        {
          "indexed": false,
          "internalType": "address",
          "name": "guesser",
          "type": "address"
        },
        {
          "indexed": false,
          "internalType": "bytes",
          "name": "wordGuessed",
          "type": "bytes"
        },
        {
          "indexed": false,
          "internalType": "uint16",
          "name": "result",
          "type": "uint16"
        }
      ],
      "name": "GuessResult",
      "type": "event"
    },
    {
      "inputs": [
        {
          "internalType": "uint256",
          "name": "wordId",
          "type": "uint256"
        },
        {
          "internalType": "bytes",
          "name": "guess",
          "type": "bytes"
        }
      ],
      "name": "attempt",
      "outputs": [],
      "stateMutability": "payable",
      "type": "function"
    },
    {
      "inputs": [],
      "name": "contractOwner",
      "outputs": [
        {
          "internalType": "address",
          "name": "",
          "type": "address"
        }
      ],
      "stateMutability": "view",
      "type": "function"
    },
    {
      "inputs": [],
      "name": "cursedWordCoin",
      "outputs": [
        {
          "internalType": "contract CursedWordCoin",
          "name": "",
          "type": "address"
        }
      ],
      "stateMutability": "view",
      "type": "function"
    },
    {
      "inputs": [],
      "name": "cursedWordTrophy",
      "outputs": [
        {
          "internalType": "contract CursedWordTrophy",
          "name": "",
          "type": "address"
        }
      ],
      "stateMutability": "view",
      "type": "function"
    },
    {
      "inputs": [],
      "name": "gameIsActive",
      "outputs": [
        {
          "internalType": "bool",
          "name": "",
          "type": "bool"
        }
      ],
      "stateMutability": "view",
      "type": "function"
    },
    {
      "inputs": [],
      "name": "id",
      "outputs": [
        {
          "internalType": "uint256",
          "name": "",
          "type": "uint256"
        }
      ],
      "stateMutability": "view",
      "type": "function"
    },
    {
      "inputs": [],
      "name": "numberOfGuesses",
      "outputs": [
        {
          "internalType": "uint256",
          "name": "",
          "type": "uint256"
        }
      ],
      "stateMutability": "view",
      "type": "function"
    },
    {
      "inputs": [
        {
          "internalType": "uint256",
          "name": "wordId",
          "type": "uint256"
        },
        {
          "internalType": "uint256",
          "name": "guessNumber",
          "type": "uint256"
        },
        {
          "internalType": "address payable",
          "name": "guesser",
          "type": "address"
        },
        {
          "internalType": "bytes",
          "name": "wordGuessed",
          "type": "bytes"
        },
        {
          "internalType": "uint16",
          "name": "response",
          "type": "uint16"
        }
      ],
      "name": "respond_to_guess",
      "outputs": [],
      "stateMutability": "payable",
      "type": "function"
    },
    {
      "inputs": [],
      "name": "toggleGame",
      "outputs": [],
      "stateMutability": "nonpayable",
      "type": "function"
    }
  ],
  "bytecode": "0x60806040523480156200001157600080fd5b50600180805560006002819055805460ff19169091179055600380546001600160a01b03191673cbc4efe8ccf05a9435089e2f8f68622abbb7642e1790556040516200005d90620001e3565b604051809103906000f0801580156200007a573d6000803e3d6000fd5b50600460006101000a8154816001600160a01b0302191690836001600160a01b03160217905550620000dd60405180606001604052806027815260200162003874602791396004546001600160a01b031662000171602090811b6200075317901c565b604051620000eb90620001f1565b604051809103906000f08015801562000108573d6000803e3d6000fd5b50600560006101000a8154816001600160a01b0302191690836001600160a01b031602179055506200016b6040518060600160405280602681526020016200389b602691396005546001600160a01b031662000171602090811b6200075317901c565b62000266565b620001be82826040516024016200018a929190620001ff565b60408051601f198184030181529190526020810180516001600160e01b0390811663319af33360e01b17909152620001c216565b5050565b80516a636f6e736f6c652e6c6f67602083016000808483855afa5050505050565b6111648062000e8183390190565b61188f8062001fe583390190565b6040815260008351806040840152815b818110156200022e57602081870181015160608684010152016200020f565b81811115620002405782606083860101525b506001600160a01b0393909316602083015250601f91909101601f191601606001919050565b610c0b80620002766000396000f3fe6080604052600436106100865760003560e01c8063af640d0f11610059578063af640d0f14610112578063ce606ee014610136578063e2784c3a14610156578063e490e3b614610180578063ed02ad371461019357600080fd5b8063349287f51461008b57806365cdb7d6146100a05780637fd60e42146100dd578063ad2d7865146100f2575b600080fd5b61009e61009936600461097a565b6101a9565b005b3480156100ac57600080fd5b506005546100c0906001600160a01b031681565b6040516001600160a01b0390911681526020015b60405180910390f35b3480156100e957600080fd5b5061009e61054d565b3480156100fe57600080fd5b506004546100c0906001600160a01b031681565b34801561011e57600080fd5b5061012860015481565b6040519081526020016100d4565b34801561014257600080fd5b506003546100c0906001600160a01b031681565b34801561016257600080fd5b506000546101709060ff1681565b60405190151581526020016100d4565b61009e61018e366004610935565b6105aa565b34801561019f57600080fd5b5061012860025481565b6003546001600160a01b031633146101f75760405162461bcd60e51b815260206004820152600c60248201526b155b985d5d1a1bdc9a5e995960a21b60448201526064015b60405180910390fd5b6102316040518060400160405280601381526020017202932b9b837b739b2903932b1b2b4bb32b21d1606d1b8152508261ffff163361079c565b8061ffff1661823514156105085760035460009081906001600160a01b031661025b600547610b7b565b604051600081818185875af1925050503d8060008114610297576040519150601f19603f3d011682016040523d82523d6000602084013e61029c565b606091505b5091509150816102ee5760405162461bcd60e51b815260206004820152601b60248201527f4661696c656420746f2073656e642077696e6e6572204574686572000000000060448201526064016101ee565b600080866001600160a01b03164760405160006040518083038185875af1925050503d806000811461033c576040519150601f19603f3d011682016040523d82523d6000602084013e610341565b606091505b5091509150816103935760405162461bcd60e51b815260206004820152601b60248201527f4661696c656420746f2073656e642077696e6e6572204574686572000000000060448201526064016101ee565b6103d16040518060400160405280601d81526020017f54686520636f727265637420776f7264207761732067756573736564210000008152506107e8565b6103f2604051806060016040528060248152602001610bb2602491396107e8565b600480546040516340c10f1960e01b81526001600160a01b038a81169382019390935268056bc75e2d6310000060248201529116906340c10f1990604401600060405180830381600087803b15801561044a57600080fd5b505af115801561045e573d6000803e3d6000fd5b5050505061049560405180604001604052806012815260200171135a5b9d1a5b99c81d1c9bdc1a1e4813919560721b8152506107e8565b600554604051632851206560e21b81526001600160a01b038981166004830152602482018c90529091169063a144819490604401600060405180830381600087803b1580156104e357600080fd5b505af11580156104f7573d6000803e3d6000fd5b5050505061050361082e565b505050505b847f24b390cd829042ea5cd3b2edd4ae9fcbee53358018dfccdaceaa27a9d8d914328585858560405161053e9493929190610ae5565b60405180910390a25050505050565b6003546001600160a01b031633146105965760405162461bcd60e51b815260206004820152600c60248201526b155b985d5d1a1bdc9a5e995960a21b60448201526064016101ee565b6000805460ff19811660ff90911615179055565b60005460ff1615156001146105f65760405162461bcd60e51b815260206004820152601260248201527147616d65206973206e6f742061637469766560701b60448201526064016101ee565b81600154146106525760405162461bcd60e51b815260206004820152602260248201527f5468697320776f72642068617320616c7265616479206265656e20736f6c7665604482015261321760f11b60648201526084016101ee565b600480546040516340c10f1960e01b81523392810192909252670de0b6b3a764000060248301526001600160a01b0316906340c10f1990604401600060405180830381600087803b1580156106a657600080fd5b505af11580156106ba573d6000803e3d6000fd5b505050506001600260008282546106d19190610b57565b9250508190555061070f604051806040016040528060138152602001720273ab6b132b91037b31023bab2b9b9b2b99d1606d1b81525060025461084c565b6001547f4744ea29987b6be0c31b96517959090e720d8c7f1d1ab17dba04a333df08a6dd600254338460405161074793929190610b24565b60405180910390a25050565b6107988282604051602401610769929190610a66565b60408051601f198184030181529190526020810180516001600160e01b031663319af33360e01b17905261088d565b5050565b6107e38383836040516024016107b493929190610ab2565b60408051601f198184030181529190526020810180516001600160e01b031663e3849f7960e01b17905261088d565b505050565b61082b816040516024016107fc9190610a4c565b60408051601f198184030181529190526020810180516001600160e01b031663104c13eb60e21b17905261088d565b50565b60018060008282546108409190610b57565b90915550506000600255565b6107988282604051602401610862929190610a90565b60408051601f198184030181529190526020810180516001600160e01b03166309710a9d60e41b1790525b80516a636f6e736f6c652e6c6f67602083016000808483855afa5050505050565b600082601f8301126108be578081fd5b813567ffffffffffffffff808211156108d9576108d9610b9b565b604051601f8301601f19908116603f0116810190828211818310171561090157610901610b9b565b81604052838152866020858801011115610919578485fd5b8360208701602083013792830160200193909352509392505050565b60008060408385031215610947578182fd5b82359150602083013567ffffffffffffffff811115610964578182fd5b610970858286016108ae565b9150509250929050565b600080600080600060a08688031215610991578081fd5b853594506020860135935060408601356001600160a01b03811681146109b5578182fd5b9250606086013567ffffffffffffffff8111156109d0578182fd5b6109dc888289016108ae565b925050608086013561ffff811681146109f3578182fd5b809150509295509295909350565b60008151808452815b81811015610a2657602081850181015186830182015201610a0a565b81811115610a375782602083870101525b50601f01601f19169290920160200192915050565b602081526000610a5f6020830184610a01565b9392505050565b604081526000610a796040830185610a01565b905060018060a01b03831660208301529392505050565b604081526000610aa36040830185610a01565b90508260208301529392505050565b606081526000610ac56060830186610a01565b6020830194909452506001600160a01b0391909116604090910152919050565b8481526001600160a01b0384166020820152608060408201819052600090610b0f90830185610a01565b905061ffff8316606083015295945050505050565b8381526001600160a01b0383166020820152606060408201819052600090610b4e90830184610a01565b95945050505050565b60008219821115610b7657634e487b7160e01b81526011600452602481fd5b500190565b600082610b9657634e487b7160e01b81526012600452602481fd5b500490565b634e487b7160e01b600052604160045260246000fdfe4d696e74696e672031303020636f696e7320666f722077696e6e696e67203a746f6f743aa2646970667358221220fdc24c9890d0f3bf9e18ad1c043903a1380bff0c3868d33f7e9752ae7b7a48b664736f6c6343000804003360806040523480156200001157600080fd5b506040518060400160405280601081526020016f21bab939b2b2102bb7b9321021b7b4b760811b8152506040518060400160405280600381526020016243574360e81b81525081600390805190602001906200006f929190620000fd565b50805162000085906004906020840190620000fd565b50506005805460ff19169055506200009d33620000a3565b620001e0565b600580546001600160a01b03838116610100818102610100600160a81b031985161790945560405193909204169182907f8be0079c531659141344cd1fd0a4f28419497f9722a3daafe3b4186f6b6457e090600090a35050565b8280546200010b90620001a3565b90600052602060002090601f0160209004810192826200012f57600085556200017a565b82601f106200014a57805160ff19168380011785556200017a565b828001600101855582156200017a579182015b828111156200017a5782518255916020019190600101906200015d565b50620001889291506200018c565b5090565b5b808211156200018857600081556001016200018d565b600181811c90821680620001b857607f821691505b60208210811415620001da57634e487b7160e01b600052602260045260246000fd5b50919050565b610f7480620001f06000396000f3fe608060405234801561001057600080fd5b50600436106101165760003560e01c806370a08231116100a257806395d89b411161007157806395d89b411461022d578063a457c2d714610235578063a9059cbb14610248578063dd62ed3e1461025b578063f2fde38b1461029457600080fd5b806370a08231146101cb578063715018a6146101f45780638456cb59146101fc5780638da5cb5b1461020457600080fd5b8063313ce567116100e9578063313ce5671461018157806339509351146101905780633f4ba83a146101a357806340c10f19146101ad5780635c975abb146101c057600080fd5b806306fdde031461011b578063095ea7b31461013957806318160ddd1461015c57806323b872dd1461016e575b600080fd5b6101236102a7565b6040516101309190610e4b565b60405180910390f35b61014c610147366004610dd7565b610339565b6040519015158152602001610130565b6002545b604051908152602001610130565b61014c61017c366004610d9c565b61034f565b60405160128152602001610130565b61014c61019e366004610dd7565b6103fe565b6101ab61043a565b005b6101ab6101bb366004610dd7565b610474565b60055460ff1661014c565b6101606101d9366004610d49565b6001600160a01b031660009081526020819052604090205490565b6101ab61051e565b6101ab610558565b60055461010090046001600160a01b03166040516001600160a01b039091168152602001610130565b610123610590565b61014c610243366004610dd7565b61059f565b61014c610256366004610dd7565b610638565b610160610269366004610d6a565b6001600160a01b03918216600090815260016020908152604080832093909416825291909152205490565b6101ab6102a2366004610d49565b610645565b6060600380546102b690610f03565b80601f01602080910402602001604051908101604052809291908181526020018280546102e290610f03565b801561032f5780601f106103045761010080835404028352916020019161032f565b820191906000526020600020905b81548152906001019060200180831161031257829003601f168201915b5050505050905090565b60006103463384846106e6565b50600192915050565b600061035c84848461080a565b6001600160a01b0384166000908152600160209081526040808320338452909152902054828110156103e65760405162461bcd60e51b815260206004820152602860248201527f45524332303a207472616e7366657220616d6f756e74206578636565647320616044820152676c6c6f77616e636560c01b60648201526084015b60405180910390fd5b6103f385338584036106e6565b506001949350505050565b3360008181526001602090815260408083206001600160a01b03871684529091528120549091610346918590610435908690610edf565b6106e6565b6005546001600160a01b0361010090910416331461046a5760405162461bcd60e51b81526004016103dd90610eaa565b6104726109e4565b565b6005546001600160a01b036101009091041633146104a45760405162461bcd60e51b81526004016103dd90610eaa565b6104d96040518060400160405280601381526020017201e9e9ea1aba19e9e9e9026b4b73a34b7339d1606d1b81525082610a77565b6105106040518060400160405280601581526020017401e9e9ea1aba19e9e9e9021b7b4b739903337b91d1605d1b81525083610abc565b61051a8282610b01565b5050565b6005546001600160a01b0361010090910416331461054e5760405162461bcd60e51b81526004016103dd90610eaa565b6104726000610bec565b6005546001600160a01b036101009091041633146105885760405162461bcd60e51b81526004016103dd90610eaa565b610472610c46565b6060600480546102b690610f03565b3360009081526001602090815260408083206001600160a01b0386168452909152812054828110156106215760405162461bcd60e51b815260206004820152602560248201527f45524332303a2064656372656173656420616c6c6f77616e63652062656c6f77604482015264207a65726f60d81b60648201526084016103dd565b61062e33858584036106e6565b5060019392505050565b600061034633848461080a565b6005546001600160a01b036101009091041633146106755760405162461bcd60e51b81526004016103dd90610eaa565b6001600160a01b0381166106da5760405162461bcd60e51b815260206004820152602660248201527f4f776e61626c653a206e6577206f776e657220697320746865207a65726f206160448201526564647265737360d01b60648201526084016103dd565b6106e381610bec565b50565b6001600160a01b0383166107485760405162461bcd60e51b8152602060048201526024808201527f45524332303a20617070726f76652066726f6d20746865207a65726f206164646044820152637265737360e01b60648201526084016103dd565b6001600160a01b0382166107a95760405162461bcd60e51b815260206004820152602260248201527f45524332303a20617070726f766520746f20746865207a65726f206164647265604482015261737360f01b60648201526084016103dd565b6001600160a01b0383811660008181526001602090815260408083209487168084529482529182902085905590518481527f8c5be1e5ebec7d5bd14f71427d1e84f3dd0314c0f7b2291e5b200ac8c7c3b925910160405180910390a3505050565b6001600160a01b03831661086e5760405162461bcd60e51b815260206004820152602560248201527f45524332303a207472616e736665722066726f6d20746865207a65726f206164604482015264647265737360d81b60648201526084016103dd565b6001600160a01b0382166108d05760405162461bcd60e51b815260206004820152602360248201527f45524332303a207472616e7366657220746f20746865207a65726f206164647260448201526265737360e81b60648201526084016103dd565b6108db838383610cc1565b6001600160a01b038316600090815260208190526040902054818110156109535760405162461bcd60e51b815260206004820152602660248201527f45524332303a207472616e7366657220616d6f756e7420657863656564732062604482015265616c616e636560d01b60648201526084016103dd565b6001600160a01b0380851660009081526020819052604080822085850390559185168152908120805484929061098a908490610edf565b92505081905550826001600160a01b0316846001600160a01b03167fddf252ad1be2c89b69c2b068fc378daa952ba7f163c4a11628f55a4df523b3ef846040516109d691815260200190565b60405180910390a350505050565b60055460ff16610a2d5760405162461bcd60e51b815260206004820152601460248201527314185d5cd8589b194e881b9bdd081c185d5cd95960621b60448201526064016103dd565b6005805460ff191690557f5db9ee0a495bf2e6ff9c91a7834c1ba4fdd244a5e8aa4e537bd38aeae4b073aa335b6040516001600160a01b03909116815260200160405180910390a1565b61051a8282604051602401610a8d929190610e88565b60408051601f198184030181529190526020810180516001600160e01b03166309710a9d60e41b179052610d0c565b61051a8282604051602401610ad2929190610e5e565b60408051601f198184030181529190526020810180516001600160e01b031663319af33360e01b179052610d0c565b6001600160a01b038216610b575760405162461bcd60e51b815260206004820152601f60248201527f45524332303a206d696e7420746f20746865207a65726f20616464726573730060448201526064016103dd565b610b6360008383610cc1565b8060026000828254610b759190610edf565b90915550506001600160a01b03821660009081526020819052604081208054839290610ba2908490610edf565b90915550506040518181526001600160a01b038316906000907fddf252ad1be2c89b69c2b068fc378daa952ba7f163c4a11628f55a4df523b3ef9060200160405180910390a35050565b600580546001600160a01b03838116610100818102610100600160a81b031985161790945560405193909204169182907f8be0079c531659141344cd1fd0a4f28419497f9722a3daafe3b4186f6b6457e090600090a35050565b60055460ff1615610c8c5760405162461bcd60e51b815260206004820152601060248201526f14185d5cd8589b194e881c185d5cd95960821b60448201526064016103dd565b6005805460ff191660011790557f62e78cea01bee320cd4e420270b5ea74000d11b0c9f74754ebdbfc544b05a258610a5a3390565b60055460ff1615610d075760405162461bcd60e51b815260206004820152601060248201526f14185d5cd8589b194e881c185d5cd95960821b60448201526064016103dd565b505050565b80516a636f6e736f6c652e6c6f67602083016000808483855afa5050505050565b80356001600160a01b0381168114610d4457600080fd5b919050565b600060208284031215610d5a578081fd5b610d6382610d2d565b9392505050565b60008060408385031215610d7c578081fd5b610d8583610d2d565b9150610d9360208401610d2d565b90509250929050565b600080600060608486031215610db0578081fd5b610db984610d2d565b9250610dc760208501610d2d565b9150604084013590509250925092565b60008060408385031215610de9578182fd5b610df283610d2d565b946020939093013593505050565b60008151808452815b81811015610e2557602081850181015186830182015201610e09565b81811115610e365782602083870101525b50601f01601f19169290920160200192915050565b602081526000610d636020830184610e00565b604081526000610e716040830185610e00565b905060018060a01b03831660208301529392505050565b604081526000610e9b6040830185610e00565b90508260208301529392505050565b6020808252818101527f4f776e61626c653a2063616c6c6572206973206e6f7420746865206f776e6572604082015260600190565b60008219821115610efe57634e487b7160e01b81526011600452602481fd5b500190565b600181811c90821680610f1757607f821691505b60208210811415610f3857634e487b7160e01b600052602260045260246000fd5b5091905056fea264697066735822122067431ad2c21c6682d1dd1caf1eada3faafe2b0cdcc79dd00d5562d38fe58fb6e64736f6c6343000804003360806040523480156200001157600080fd5b50604080518082018252601081526f437572736564576f726454726f70687960801b60208083019182528351808501909452600384526210d5d560ea1b9084015281519192916200006591600091620000f4565b5080516200007b906001906020840190620000f4565b50505062000098620000926200009e60201b60201c565b620000a2565b620001d7565b3390565b600680546001600160a01b038381166001600160a01b0319831681179093556040519116919082907f8be0079c531659141344cd1fd0a4f28419497f9722a3daafe3b4186f6b6457e090600090a35050565b82805462000102906200019a565b90600052602060002090601f01602090048101928262000126576000855562000171565b82601f106200014157805160ff191683800117855562000171565b8280016001018555821562000171579182015b828111156200017157825182559160200191906001019062000154565b506200017f92915062000183565b5090565b5b808211156200017f576000815560010162000184565b600181811c90821680620001af57607f821691505b60208210811415620001d157634e487b7160e01b600052602260045260246000fd5b50919050565b6116a880620001e76000396000f3fe608060405234801561001057600080fd5b506004361061010b5760003560e01c8063715018a6116100a2578063a22cb46511610071578063a22cb4651461021b578063b88d4fde1461022e578063c87b56dd14610241578063e985e9c514610254578063f2fde38b1461029057600080fd5b8063715018a6146101e75780638da5cb5b146101ef57806395d89b4114610200578063a14481941461020857600080fd5b806323b872dd116100de57806323b872dd1461018d57806342842e0e146101a05780636352211e146101b357806370a08231146101c657600080fd5b806301ffc9a71461011057806306fdde0314610138578063081812fc1461014d578063095ea7b314610178575b600080fd5b61012361011e36600461134c565b6102a3565b60405190151581526020015b60405180910390f35b6101406102f5565b60405161012f9190611434565b61016061015b366004611384565b610387565b6040516001600160a01b03909116815260200161012f565b61018b610186366004611323565b610421565b005b61018b61019b3660046111d9565b610537565b61018b6101ae3660046111d9565b610568565b6101606101c1366004611384565b610583565b6101d96101d436600461118d565b6105fa565b60405190815260200161012f565b61018b610681565b6006546001600160a01b0316610160565b6101406106b7565b61018b610216366004611323565b6106c6565b61018b6102293660046112e9565b610736565b61018b61023c366004611214565b610741565b61014061024f366004611384565b610779565b6101236102623660046111a7565b6001600160a01b03918216600090815260056020908152604080832093909416825291909152205460ff1690565b61018b61029e36600461118d565b610861565b60006001600160e01b031982166380ac58cd60e01b14806102d457506001600160e01b03198216635b5e139f60e01b145b806102ef57506301ffc9a760e01b6001600160e01b03198316145b92915050565b606060008054610304906115b0565b80601f0160208091040260200160405190810160405280929190818152602001828054610330906115b0565b801561037d5780601f106103525761010080835404028352916020019161037d565b820191906000526020600020905b81548152906001019060200180831161036057829003601f168201915b5050505050905090565b6000818152600260205260408120546001600160a01b03166104055760405162461bcd60e51b815260206004820152602c60248201527f4552433732313a20617070726f76656420717565727920666f72206e6f6e657860448201526b34b9ba32b73a103a37b5b2b760a11b60648201526084015b60405180910390fd5b506000908152600460205260409020546001600160a01b031690565b600061042c82610583565b9050806001600160a01b0316836001600160a01b0316141561049a5760405162461bcd60e51b815260206004820152602160248201527f4552433732313a20617070726f76616c20746f2063757272656e74206f776e656044820152603960f91b60648201526084016103fc565b336001600160a01b03821614806104b657506104b68133610262565b6105285760405162461bcd60e51b815260206004820152603860248201527f4552433732313a20617070726f76652063616c6c6572206973206e6f74206f7760448201527f6e6572206e6f7220617070726f76656420666f7220616c6c000000000000000060648201526084016103fc565b61053283836108fc565b505050565b610541338261096a565b61055d5760405162461bcd60e51b81526004016103fc906114f0565b610532838383610a61565b61053283838360405180602001604052806000815250610741565b6000818152600260205260408120546001600160a01b0316806102ef5760405162461bcd60e51b815260206004820152602960248201527f4552433732313a206f776e657220717565727920666f72206e6f6e657869737460448201526832b73a103a37b5b2b760b91b60648201526084016103fc565b60006001600160a01b0382166106655760405162461bcd60e51b815260206004820152602a60248201527f4552433732313a2062616c616e636520717565727920666f7220746865207a65604482015269726f206164647265737360b01b60648201526084016103fc565b506001600160a01b031660009081526003602052604090205490565b6006546001600160a01b031633146106ab5760405162461bcd60e51b81526004016103fc906114bb565b6106b56000610c01565b565b606060018054610304906115b0565b6006546001600160a01b031633146106f05760405162461bcd60e51b81526004016103fc906114bb565b6107286040518060400160405280601681526020017501e9e9ea1abaa1e9e9e9027232a1026b4b73a32b21d160551b81525082610c53565b6107328282610c98565b5050565b610732338383610cb2565b61074b338361096a565b6107675760405162461bcd60e51b81526004016103fc906114f0565b61077384848484610d81565b50505050565b6000818152600260205260409020546060906001600160a01b03166107f85760405162461bcd60e51b815260206004820152602f60248201527f4552433732314d657461646174613a2055524920717565727920666f72206e6f60448201526e3732bc34b9ba32b73a103a37b5b2b760891b60648201526084016103fc565b600061080f60408051602081019091526000815290565b9050600081511161082f576040518060200160405280600081525061085a565b8061083984610db4565b60405160200161084a9291906113c8565b6040516020818303038152906040525b9392505050565b6006546001600160a01b0316331461088b5760405162461bcd60e51b81526004016103fc906114bb565b6001600160a01b0381166108f05760405162461bcd60e51b815260206004820152602660248201527f4f776e61626c653a206e6577206f776e657220697320746865207a65726f206160448201526564647265737360d01b60648201526084016103fc565b6108f981610c01565b50565b600081815260046020526040902080546001600160a01b0319166001600160a01b038416908117909155819061093182610583565b6001600160a01b03167f8c5be1e5ebec7d5bd14f71427d1e84f3dd0314c0f7b2291e5b200ac8c7c3b92560405160405180910390a45050565b6000818152600260205260408120546001600160a01b03166109e35760405162461bcd60e51b815260206004820152602c60248201527f4552433732313a206f70657261746f7220717565727920666f72206e6f6e657860448201526b34b9ba32b73a103a37b5b2b760a11b60648201526084016103fc565b60006109ee83610583565b9050806001600160a01b0316846001600160a01b03161480610a295750836001600160a01b0316610a1e84610387565b6001600160a01b0316145b80610a5957506001600160a01b0380821660009081526005602090815260408083209388168352929052205460ff165b949350505050565b826001600160a01b0316610a7482610583565b6001600160a01b031614610adc5760405162461bcd60e51b815260206004820152602960248201527f4552433732313a207472616e73666572206f6620746f6b656e2074686174206960448201526839903737ba1037bbb760b91b60648201526084016103fc565b6001600160a01b038216610b3e5760405162461bcd60e51b8152602060048201526024808201527f4552433732313a207472616e7366657220746f20746865207a65726f206164646044820152637265737360e01b60648201526084016103fc565b610b496000826108fc565b6001600160a01b0383166000908152600360205260408120805460019290610b7290849061156d565b90915550506001600160a01b0382166000908152600360205260408120805460019290610ba0908490611541565b909155505060008181526002602052604080822080546001600160a01b0319166001600160a01b0386811691821790925591518493918716917fddf252ad1be2c89b69c2b068fc378daa952ba7f163c4a11628f55a4df523b3ef91a4505050565b600680546001600160a01b038381166001600160a01b0319831681179093556040519116919082907f8be0079c531659141344cd1fd0a4f28419497f9722a3daafe3b4186f6b6457e090600090a35050565b6107328282604051602401610c69929190611447565b60408051601f198184030181529190526020810180516001600160e01b03166309710a9d60e41b179052610ece565b610732828260405180602001604052806000815250610eef565b816001600160a01b0316836001600160a01b03161415610d145760405162461bcd60e51b815260206004820152601960248201527f4552433732313a20617070726f766520746f2063616c6c65720000000000000060448201526064016103fc565b6001600160a01b03838116600081815260056020908152604080832094871680845294825291829020805460ff191686151590811790915591519182527f17307eab39ab6107e8899845ad3d59bd9653f200f220920489ca2b5937696c31910160405180910390a3505050565b610d8c848484610a61565b610d9884848484610f22565b6107735760405162461bcd60e51b81526004016103fc90611469565b606081610dd85750506040805180820190915260018152600360fc1b602082015290565b8160005b8115610e025780610dec816115eb565b9150610dfb9050600a83611559565b9150610ddc565b60008167ffffffffffffffff811115610e2b57634e487b7160e01b600052604160045260246000fd5b6040519080825280601f01601f191660200182016040528015610e55576020820181803683370190505b5090505b8415610a5957610e6a60018361156d565b9150610e77600a86611606565b610e82906030611541565b60f81b818381518110610ea557634e487b7160e01b600052603260045260246000fd5b60200101906001600160f81b031916908160001a905350610ec7600a86611559565b9450610e59565b80516a636f6e736f6c652e6c6f67602083016000808483855afa5050505050565b610ef9838361102f565b610f066000848484610f22565b6105325760405162461bcd60e51b81526004016103fc90611469565b60006001600160a01b0384163b1561102457604051630a85bd0160e11b81526001600160a01b0385169063150b7a0290610f669033908990889088906004016113f7565b602060405180830381600087803b158015610f8057600080fd5b505af1925050508015610fb0575060408051601f3d908101601f19168201909252610fad91810190611368565b60015b61100a573d808015610fde576040519150601f19603f3d011682016040523d82523d6000602084013e610fe3565b606091505b5080516110025760405162461bcd60e51b81526004016103fc90611469565b805181602001fd5b6001600160e01b031916630a85bd0160e11b149050610a59565b506001949350505050565b6001600160a01b0382166110855760405162461bcd60e51b815260206004820181905260248201527f4552433732313a206d696e7420746f20746865207a65726f206164647265737360448201526064016103fc565b6000818152600260205260409020546001600160a01b0316156110ea5760405162461bcd60e51b815260206004820152601c60248201527f4552433732313a20746f6b656e20616c7265616479206d696e7465640000000060448201526064016103fc565b6001600160a01b0382166000908152600360205260408120805460019290611113908490611541565b909155505060008181526002602052604080822080546001600160a01b0319166001600160a01b03861690811790915590518392907fddf252ad1be2c89b69c2b068fc378daa952ba7f163c4a11628f55a4df523b3ef908290a45050565b80356001600160a01b038116811461118857600080fd5b919050565b60006020828403121561119e578081fd5b61085a82611171565b600080604083850312156111b9578081fd5b6111c283611171565b91506111d060208401611171565b90509250929050565b6000806000606084860312156111ed578081fd5b6111f684611171565b925061120460208501611171565b9150604084013590509250925092565b60008060008060808587031215611229578081fd5b61123285611171565b935061124060208601611171565b925060408501359150606085013567ffffffffffffffff80821115611263578283fd5b818701915087601f830112611276578283fd5b81358181111561128857611288611646565b604051601f8201601f19908116603f011681019083821181831017156112b0576112b0611646565b816040528281528a60208487010111156112c8578586fd5b82602086016020830137918201602001949094529598949750929550505050565b600080604083850312156112fb578182fd5b61130483611171565b915060208301358015158114611318578182fd5b809150509250929050565b60008060408385031215611335578182fd5b61133e83611171565b946020939093013593505050565b60006020828403121561135d578081fd5b813561085a8161165c565b600060208284031215611379578081fd5b815161085a8161165c565b600060208284031215611395578081fd5b5035919050565b600081518084526113b4816020860160208601611584565b601f01601f19169290920160200192915050565b600083516113da818460208801611584565b8351908301906113ee818360208801611584565b01949350505050565b6001600160a01b038581168252841660208201526040810183905260806060820181905260009061142a9083018461139c565b9695505050505050565b60208152600061085a602083018461139c565b60408152600061145a604083018561139c565b90508260208301529392505050565b60208082526032908201527f4552433732313a207472616e7366657220746f206e6f6e20455243373231526560408201527131b2b4bb32b91034b6b83632b6b2b73a32b960711b606082015260800190565b6020808252818101527f4f776e61626c653a2063616c6c6572206973206e6f7420746865206f776e6572604082015260600190565b60208082526031908201527f4552433732313a207472616e736665722063616c6c6572206973206e6f74206f6040820152701ddb995c881b9bdc88185c1c1c9bdd9959607a1b606082015260800190565b600082198211156115545761155461161a565b500190565b60008261156857611568611630565b500490565b60008282101561157f5761157f61161a565b500390565b60005b8381101561159f578181015183820152602001611587565b838111156107735750506000910152565b600181811c908216806115c457607f821691505b602082108114156115e557634e487b7160e01b600052602260045260246000fd5b50919050565b60006000198214156115ff576115ff61161a565b5060010190565b60008261161557611615611630565b500690565b634e487b7160e01b600052601160045260246000fd5b634e487b7160e01b600052601260045260246000fd5b634e487b7160e01b600052604160045260246000fd5b6001600160e01b0319811681146108f957600080fdfea26469706673582212205cc2407aa504d9d980b2d23a7f885a6500eedf8387da8a15c622c9327caa2c4d64736f6c63430008040033455243323020546f6b656e20636f6e747261637420637265617465642120416464726573733a20455243373231204e465420636f6e747261637420637265617465642120416464726573733a20",
  "linkReferences": {},
  "deployedLinkReferences": {}
}