{
  "_format": "hh-sol-artifact-1",
  "contractName": "CursedWordTrophyV2",
  "sourceName": "contracts/CursedWordTrophyV2.sol",
  "abi": [
    {
      "inputs": [],
      "stateMutability": "nonpayable",
      "type": "constructor"
    },
    {
      "anonymous": false,
      "inputs": [
        {
          "indexed": true,
          "internalType": "address",
          "name": "owner",
          "type": "address"
        },
        {
          "indexed": true,
          "internalType": "address",
          "name": "approved",
          "type": "address"
        },
        {
          "indexed": true,
          "internalType": "uint256",
          "name": "tokenId",
          "type": "uint256"
        }
      ],
      "name": "Approval",
      "type": "event"
    },
    {
      "anonymous": false,
      "inputs": [
        {
          "indexed": true,
          "internalType": "address",
          "name": "owner",
          "type": "address"
        },
        {
          "indexed": true,
          "internalType": "address",
          "name": "operator",
          "type": "address"
        },
        {
          "indexed": false,
          "internalType": "bool",
          "name": "approved",
          "type": "bool"
        }
      ],
      "name": "ApprovalForAll",
      "type": "event"
    },
    {
      "anonymous": false,
      "inputs": [
        {
          "indexed": true,
          "internalType": "address",
          "name": "previousOwner",
          "type": "address"
        },
        {
          "indexed": true,
          "internalType": "address",
          "name": "newOwner",
          "type": "address"
        }
      ],
      "name": "OwnershipTransferred",
      "type": "event"
    },
    {
      "anonymous": false,
      "inputs": [
        {
          "indexed": true,
          "internalType": "address",
          "name": "from",
          "type": "address"
        },
        {
          "indexed": true,
          "internalType": "address",
          "name": "to",
          "type": "address"
        },
        {
          "indexed": true,
          "internalType": "uint256",
          "name": "tokenId",
          "type": "uint256"
        }
      ],
      "name": "Transfer",
      "type": "event"
    },
    {
      "inputs": [
        {
          "internalType": "address",
          "name": "to",
          "type": "address"
        },
        {
          "internalType": "uint256",
          "name": "tokenId",
          "type": "uint256"
        }
      ],
      "name": "approve",
      "outputs": [],
      "stateMutability": "nonpayable",
      "type": "function"
    },
    {
      "inputs": [
        {
          "internalType": "address",
          "name": "owner",
          "type": "address"
        }
      ],
      "name": "balanceOf",
      "outputs": [
        {
          "internalType": "uint256",
          "name": "",
          "type": "uint256"
        }
      ],
      "stateMutability": "view",
      "type": "function"
    },
    {
      "inputs": [
        {
          "internalType": "uint256",
          "name": "tokenId",
          "type": "uint256"
        }
      ],
      "name": "getApproved",
      "outputs": [
        {
          "internalType": "address",
          "name": "",
          "type": "address"
        }
      ],
      "stateMutability": "view",
      "type": "function"
    },
    {
      "inputs": [
        {
          "internalType": "address",
          "name": "owner",
          "type": "address"
        },
        {
          "internalType": "address",
          "name": "operator",
          "type": "address"
        }
      ],
      "name": "isApprovedForAll",
      "outputs": [
        {
          "internalType": "bool",
          "name": "",
          "type": "bool"
        }
      ],
      "stateMutability": "view",
      "type": "function"
    },
    {
      "inputs": [],
      "name": "name",
      "outputs": [
        {
          "internalType": "string",
          "name": "",
          "type": "string"
        }
      ],
      "stateMutability": "view",
      "type": "function"
    },
    {
      "inputs": [],
      "name": "owner",
      "outputs": [
        {
          "internalType": "address",
          "name": "",
          "type": "address"
        }
      ],
      "stateMutability": "view",
      "type": "function"
    },
    {
      "inputs": [
        {
          "internalType": "uint256",
          "name": "tokenId",
          "type": "uint256"
        }
      ],
      "name": "ownerOf",
      "outputs": [
        {
          "internalType": "address",
          "name": "",
          "type": "address"
        }
      ],
      "stateMutability": "view",
      "type": "function"
    },
    {
      "inputs": [],
      "name": "renounceOwnership",
      "outputs": [],
      "stateMutability": "nonpayable",
      "type": "function"
    },
    {
      "inputs": [
        {
          "internalType": "address",
          "name": "to",
          "type": "address"
        },
        {
          "internalType": "uint256",
          "name": "tokenId",
          "type": "uint256"
        },
        {
          "internalType": "string",
          "name": "uri",
          "type": "string"
        }
      ],
      "name": "safeMint",
      "outputs": [],
      "stateMutability": "nonpayable",
      "type": "function"
    },
    {
      "inputs": [
        {
          "internalType": "address",
          "name": "from",
          "type": "address"
        },
        {
          "internalType": "address",
          "name": "to",
          "type": "address"
        },
        {
          "internalType": "uint256",
          "name": "tokenId",
          "type": "uint256"
        }
      ],
      "name": "safeTransferFrom",
      "outputs": [],
      "stateMutability": "nonpayable",
      "type": "function"
    },
    {
      "inputs": [
        {
          "internalType": "address",
          "name": "from",
          "type": "address"
        },
        {
          "internalType": "address",
          "name": "to",
          "type": "address"
        },
        {
          "internalType": "uint256",
          "name": "tokenId",
          "type": "uint256"
        },
        {
          "internalType": "bytes",
          "name": "_data",
          "type": "bytes"
        }
      ],
      "name": "safeTransferFrom",
      "outputs": [],
      "stateMutability": "nonpayable",
      "type": "function"
    },
    {
      "inputs": [
        {
          "internalType": "address",
          "name": "operator",
          "type": "address"
        },
        {
          "internalType": "bool",
          "name": "approved",
          "type": "bool"
        }
      ],
      "name": "setApprovalForAll",
      "outputs": [],
      "stateMutability": "nonpayable",
      "type": "function"
    },
    {
      "inputs": [
        {
          "internalType": "bytes4",
          "name": "interfaceId",
          "type": "bytes4"
        }
      ],
      "name": "supportsInterface",
      "outputs": [
        {
          "internalType": "bool",
          "name": "",
          "type": "bool"
        }
      ],
      "stateMutability": "view",
      "type": "function"
    },
    {
      "inputs": [],
      "name": "symbol",
      "outputs": [
        {
          "internalType": "string",
          "name": "",
          "type": "string"
        }
      ],
      "stateMutability": "view",
      "type": "function"
    },
    {
      "inputs": [
        {
          "internalType": "uint256",
          "name": "index",
          "type": "uint256"
        }
      ],
      "name": "tokenByIndex",
      "outputs": [
        {
          "internalType": "uint256",
          "name": "",
          "type": "uint256"
        }
      ],
      "stateMutability": "view",
      "type": "function"
    },
    {
      "inputs": [
        {
          "internalType": "address",
          "name": "owner",
          "type": "address"
        },
        {
          "internalType": "uint256",
          "name": "index",
          "type": "uint256"
        }
      ],
      "name": "tokenOfOwnerByIndex",
      "outputs": [
        {
          "internalType": "uint256",
          "name": "",
          "type": "uint256"
        }
      ],
      "stateMutability": "view",
      "type": "function"
    },
    {
      "inputs": [
        {
          "internalType": "uint256",
          "name": "tokenId",
          "type": "uint256"
        }
      ],
      "name": "tokenURI",
      "outputs": [
        {
          "internalType": "string",
          "name": "",
          "type": "string"
        }
      ],
      "stateMutability": "view",
      "type": "function"
    },
    {
      "inputs": [],
      "name": "totalSupply",
      "outputs": [
        {
          "internalType": "uint256",
          "name": "",
          "type": "uint256"
        }
      ],
      "stateMutability": "view",
      "type": "function"
    },
    {
      "inputs": [
        {
          "internalType": "address",
          "name": "from",
          "type": "address"
        },
        {
          "internalType": "address",
          "name": "to",
          "type": "address"
        },
        {
          "internalType": "uint256",
          "name": "tokenId",
          "type": "uint256"
        }
      ],
      "name": "transferFrom",
      "outputs": [],
      "stateMutability": "nonpayable",
      "type": "function"
    },
    {
      "inputs": [
        {
          "internalType": "address",
          "name": "newOwner",
          "type": "address"
        }
      ],
      "name": "transferOwnership",
      "outputs": [],
      "stateMutability": "nonpayable",
      "type": "function"
    }
  ],
  "bytecode": "0x60806040523480156200001157600080fd5b50604080518082018252601281527143757273656420576f72642054726f70687960701b60208083019182528351808501909452600384526210d5d560ea1b9084015281519192916200006791600091620001ea565b5080516200007d906001906020840190620001ea565b5050506200009a62000094620000bf60201b60201c565b620000c3565b620000b973cbc4efe8ccf05a9435089e2f8f68622abbb7642e62000115565b620002cd565b3390565b600b80546001600160a01b038381166001600160a01b0319831681179093556040519116919082907f8be0079c531659141344cd1fd0a4f28419497f9722a3daafe3b4186f6b6457e090600090a35050565b600b546001600160a01b03163314620001755760405162461bcd60e51b815260206004820181905260248201527f4f776e61626c653a2063616c6c6572206973206e6f7420746865206f776e657260448201526064015b60405180910390fd5b6001600160a01b038116620001dc5760405162461bcd60e51b815260206004820152602660248201527f4f776e61626c653a206e6577206f776e657220697320746865207a65726f206160448201526564647265737360d01b60648201526084016200016c565b620001e781620000c3565b50565b828054620001f89062000290565b90600052602060002090601f0160209004810192826200021c576000855562000267565b82601f106200023757805160ff191683800117855562000267565b8280016001018555821562000267579182015b82811115620002675782518255916020019190600101906200024a565b506200027592915062000279565b5090565b5b808211156200027557600081556001016200027a565b600181811c90821680620002a557607f821691505b60208210811415620002c757634e487b7160e01b600052602260045260246000fd5b50919050565b611d7280620002dd6000396000f3fe608060405234801561001057600080fd5b506004361061012c5760003560e01c806370a08231116100ad578063b88d4fde11610071578063b88d4fde14610266578063c87b56dd14610279578063cd279c7c1461028c578063e985e9c51461029f578063f2fde38b146102db57600080fd5b806370a082311461021f578063715018a6146102325780638da5cb5b1461023a57806395d89b411461024b578063a22cb4651461025357600080fd5b806323b872dd116100f457806323b872dd146101c05780632f745c59146101d357806342842e0e146101e65780634f6ccce7146101f95780636352211e1461020c57600080fd5b806301ffc9a71461013157806306fdde0314610159578063081812fc1461016e578063095ea7b31461019957806318160ddd146101ae575b600080fd5b61014461013f366004611a0c565b6102ee565b60405190151581526020015b60405180910390f35b6101616102ff565b6040516101509190611af4565b61018161017c366004611a44565b610391565b6040516001600160a01b039091168152602001610150565b6101ac6101a736600461197b565b61041e565b005b6008545b604051908152602001610150565b6101ac6101ce36600461188d565b610534565b6101b26101e136600461197b565b610565565b6101ac6101f436600461188d565b6105fb565b6101b2610207366004611a44565b610616565b61018161021a366004611a44565b6106b7565b6101b261022d366004611841565b61072e565b6101ac6107b5565b600b546001600160a01b0316610181565b6101616107eb565b6101ac610261366004611941565b6107fa565b6101ac6102743660046118c8565b610809565b610161610287366004611a44565b610841565b6101ac61029a3660046119a4565b61084c565b6101446102ad36600461185b565b6001600160a01b03918216600090815260056020908152604080832093909416825291909152205460ff1690565b6101ac6102e9366004611841565b61088a565b60006102f982610925565b92915050565b60606000805461030e90611c4e565b80601f016020809104026020016040519081016040528092919081815260200182805461033a90611c4e565b80156103875780601f1061035c57610100808354040283529160200191610387565b820191906000526020600020905b81548152906001019060200180831161036a57829003601f168201915b5050505050905090565b600061039c8261094a565b6104025760405162461bcd60e51b815260206004820152602c60248201527f4552433732313a20617070726f76656420717565727920666f72206e6f6e657860448201526b34b9ba32b73a103a37b5b2b760a11b60648201526084015b60405180910390fd5b506000908152600460205260409020546001600160a01b031690565b6000610429826106b7565b9050806001600160a01b0316836001600160a01b031614156104975760405162461bcd60e51b815260206004820152602160248201527f4552433732313a20617070726f76616c20746f2063757272656e74206f776e656044820152603960f91b60648201526084016103f9565b336001600160a01b03821614806104b357506104b381336102ad565b6105255760405162461bcd60e51b815260206004820152603860248201527f4552433732313a20617070726f76652063616c6c6572206973206e6f74206f7760448201527f6e6572206e6f7220617070726f76656420666f7220616c6c000000000000000060648201526084016103f9565b61052f8383610967565b505050565b61053e33826109d5565b61055a5760405162461bcd60e51b81526004016103f990611b8e565b61052f838383610abf565b60006105708361072e565b82106105d25760405162461bcd60e51b815260206004820152602b60248201527f455243373231456e756d657261626c653a206f776e657220696e646578206f7560448201526a74206f6620626f756e647360a81b60648201526084016103f9565b506001600160a01b03919091166000908152600660209081526040808320938352929052205490565b61052f83838360405180602001604052806000815250610809565b600061062160085490565b82106106845760405162461bcd60e51b815260206004820152602c60248201527f455243373231456e756d657261626c653a20676c6f62616c20696e646578206f60448201526b7574206f6620626f756e647360a01b60648201526084016103f9565b600882815481106106a557634e487b7160e01b600052603260045260246000fd5b90600052602060002001549050919050565b6000818152600260205260408120546001600160a01b0316806102f95760405162461bcd60e51b815260206004820152602960248201527f4552433732313a206f776e657220717565727920666f72206e6f6e657869737460448201526832b73a103a37b5b2b760b91b60648201526084016103f9565b60006001600160a01b0382166107995760405162461bcd60e51b815260206004820152602a60248201527f4552433732313a2062616c616e636520717565727920666f7220746865207a65604482015269726f206164647265737360b01b60648201526084016103f9565b506001600160a01b031660009081526003602052604090205490565b600b546001600160a01b031633146107df5760405162461bcd60e51b81526004016103f990611b59565b6107e96000610c6a565b565b60606001805461030e90611c4e565b610805338383610cbc565b5050565b61081333836109d5565b61082f5760405162461bcd60e51b81526004016103f990611b8e565b61083b84848484610d8b565b50505050565b60606102f982610dbe565b600b546001600160a01b031633146108765760405162461bcd60e51b81526004016103f990611b59565b6108808383610f20565b61052f8282610f3a565b600b546001600160a01b031633146108b45760405162461bcd60e51b81526004016103f990611b59565b6001600160a01b0381166109195760405162461bcd60e51b815260206004820152602660248201527f4f776e61626c653a206e6577206f776e657220697320746865207a65726f206160448201526564647265737360d01b60648201526084016103f9565b61092281610c6a565b50565b60006001600160e01b0319821663780e9d6360e01b14806102f957506102f982610fc5565b6000908152600260205260409020546001600160a01b0316151590565b600081815260046020526040902080546001600160a01b0319166001600160a01b038416908117909155819061099c826106b7565b6001600160a01b03167f8c5be1e5ebec7d5bd14f71427d1e84f3dd0314c0f7b2291e5b200ac8c7c3b92560405160405180910390a45050565b60006109e08261094a565b610a415760405162461bcd60e51b815260206004820152602c60248201527f4552433732313a206f70657261746f7220717565727920666f72206e6f6e657860448201526b34b9ba32b73a103a37b5b2b760a11b60648201526084016103f9565b6000610a4c836106b7565b9050806001600160a01b0316846001600160a01b03161480610a875750836001600160a01b0316610a7c84610391565b6001600160a01b0316145b80610ab757506001600160a01b0380821660009081526005602090815260408083209388168352929052205460ff165b949350505050565b826001600160a01b0316610ad2826106b7565b6001600160a01b031614610b3a5760405162461bcd60e51b815260206004820152602960248201527f4552433732313a207472616e73666572206f6620746f6b656e2074686174206960448201526839903737ba1037bbb760b91b60648201526084016103f9565b6001600160a01b038216610b9c5760405162461bcd60e51b8152602060048201526024808201527f4552433732313a207472616e7366657220746f20746865207a65726f206164646044820152637265737360e01b60648201526084016103f9565b610ba7838383611015565b610bb2600082610967565b6001600160a01b0383166000908152600360205260408120805460019290610bdb908490611c0b565b90915550506001600160a01b0382166000908152600360205260408120805460019290610c09908490611bdf565b909155505060008181526002602052604080822080546001600160a01b0319166001600160a01b0386811691821790925591518493918716917fddf252ad1be2c89b69c2b068fc378daa952ba7f163c4a11628f55a4df523b3ef91a4505050565b600b80546001600160a01b038381166001600160a01b0319831681179093556040519116919082907f8be0079c531659141344cd1fd0a4f28419497f9722a3daafe3b4186f6b6457e090600090a35050565b816001600160a01b0316836001600160a01b03161415610d1e5760405162461bcd60e51b815260206004820152601960248201527f4552433732313a20617070726f766520746f2063616c6c65720000000000000060448201526064016103f9565b6001600160a01b03838116600081815260056020908152604080832094871680845294825291829020805460ff191686151590811790915591519182527f17307eab39ab6107e8899845ad3d59bd9653f200f220920489ca2b5937696c31910160405180910390a3505050565b610d96848484610abf565b610da284848484611020565b61083b5760405162461bcd60e51b81526004016103f990611b07565b6060610dc98261094a565b610e2f5760405162461bcd60e51b815260206004820152603160248201527f45524337323155524953746f726167653a2055524920717565727920666f72206044820152703737b732bc34b9ba32b73a103a37b5b2b760791b60648201526084016103f9565b6000828152600a602052604081208054610e4890611c4e565b80601f0160208091040260200160405190810160405280929190818152602001828054610e7490611c4e565b8015610ec15780601f10610e9657610100808354040283529160200191610ec1565b820191906000526020600020905b815481529060010190602001808311610ea457829003601f168201915b505050505090506000610ed261112d565b9050805160001415610ee5575092915050565b815115610f17578082604051602001610eff929190611a88565b60405160208183030381529060405292505050919050565b610ab78461114d565b610805828260405180602001604052806000815250611218565b610f438261094a565b610fa65760405162461bcd60e51b815260206004820152602e60248201527f45524337323155524953746f726167653a2055524920736574206f66206e6f6e60448201526d32bc34b9ba32b73a103a37b5b2b760911b60648201526084016103f9565b6000828152600a60209081526040909120825161052f92840190611716565b60006001600160e01b031982166380ac58cd60e01b1480610ff657506001600160e01b03198216635b5e139f60e01b145b806102f957506301ffc9a760e01b6001600160e01b03198316146102f9565b61052f83838361124b565b60006001600160a01b0384163b1561112257604051630a85bd0160e11b81526001600160a01b0385169063150b7a0290611064903390899088908890600401611ab7565b602060405180830381600087803b15801561107e57600080fd5b505af19250505080156110ae575060408051601f3d908101601f191682019092526110ab91810190611a28565b60015b611108573d8080156110dc576040519150601f19603f3d011682016040523d82523d6000602084013e6110e1565b606091505b5080516111005760405162461bcd60e51b81526004016103f990611b07565b805181602001fd5b6001600160e01b031916630a85bd0160e11b149050610ab7565b506001949350505050565b60606040518060600160405280602c8152602001611d11602c9139905090565b60606111588261094a565b6111bc5760405162461bcd60e51b815260206004820152602f60248201527f4552433732314d657461646174613a2055524920717565727920666f72206e6f60448201526e3732bc34b9ba32b73a103a37b5b2b760891b60648201526084016103f9565b60006111c661112d565b905060008151116111e65760405180602001604052806000815250611211565b806111f084611303565b604051602001611201929190611a88565b6040516020818303038152906040525b9392505050565b611222838361141d565b61122f6000848484611020565b61052f5760405162461bcd60e51b81526004016103f990611b07565b6001600160a01b0383166112a6576112a181600880546000838152600960205260408120829055600182018355919091527ff3f7a9fe364faab93b216da50a3214154f22a0a2b415b23a84c8169e8b636ee30155565b6112c9565b816001600160a01b0316836001600160a01b0316146112c9576112c9838261155c565b6001600160a01b0382166112e05761052f816115f9565b826001600160a01b0316826001600160a01b03161461052f5761052f82826116d2565b6060816113275750506040805180820190915260018152600360fc1b602082015290565b8160005b8115611351578061133b81611c89565b915061134a9050600a83611bf7565b915061132b565b60008167ffffffffffffffff81111561137a57634e487b7160e01b600052604160045260246000fd5b6040519080825280601f01601f1916602001820160405280156113a4576020820181803683370190505b5090505b8415610ab7576113b9600183611c0b565b91506113c6600a86611ca4565b6113d1906030611bdf565b60f81b8183815181106113f457634e487b7160e01b600052603260045260246000fd5b60200101906001600160f81b031916908160001a905350611416600a86611bf7565b94506113a8565b6001600160a01b0382166114735760405162461bcd60e51b815260206004820181905260248201527f4552433732313a206d696e7420746f20746865207a65726f206164647265737360448201526064016103f9565b61147c8161094a565b156114c95760405162461bcd60e51b815260206004820152601c60248201527f4552433732313a20746f6b656e20616c7265616479206d696e7465640000000060448201526064016103f9565b6114d560008383611015565b6001600160a01b03821660009081526003602052604081208054600192906114fe908490611bdf565b909155505060008181526002602052604080822080546001600160a01b0319166001600160a01b03861690811790915590518392907fddf252ad1be2c89b69c2b068fc378daa952ba7f163c4a11628f55a4df523b3ef908290a45050565b600060016115698461072e565b6115739190611c0b565b6000838152600760205260409020549091508082146115c6576001600160a01b03841660009081526006602090815260408083208584528252808320548484528184208190558352600790915290208190555b5060009182526007602090815260408084208490556001600160a01b039094168352600681528383209183525290812055565b60085460009061160b90600190611c0b565b6000838152600960205260408120546008805493945090928490811061164157634e487b7160e01b600052603260045260246000fd5b90600052602060002001549050806008838154811061167057634e487b7160e01b600052603260045260246000fd5b60009182526020808320909101929092558281526009909152604080822084905585825281205560088054806116b657634e487b7160e01b600052603160045260246000fd5b6001900381819060005260206000200160009055905550505050565b60006116dd8361072e565b6001600160a01b039093166000908152600660209081526040808320868452825280832085905593825260079052919091209190915550565b82805461172290611c4e565b90600052602060002090601f016020900481019282611744576000855561178a565b82601f1061175d57805160ff191683800117855561178a565b8280016001018555821561178a579182015b8281111561178a57825182559160200191906001019061176f565b5061179692915061179a565b5090565b5b80821115611796576000815560010161179b565b600067ffffffffffffffff808411156117ca576117ca611ce4565b604051601f8501601f19908116603f011681019082821181831017156117f2576117f2611ce4565b8160405280935085815286868601111561180b57600080fd5b858560208301376000602087830101525050509392505050565b80356001600160a01b038116811461183c57600080fd5b919050565b600060208284031215611852578081fd5b61121182611825565b6000806040838503121561186d578081fd5b61187683611825565b915061188460208401611825565b90509250929050565b6000806000606084860312156118a1578081fd5b6118aa84611825565b92506118b860208501611825565b9150604084013590509250925092565b600080600080608085870312156118dd578081fd5b6118e685611825565b93506118f460208601611825565b925060408501359150606085013567ffffffffffffffff811115611916578182fd5b8501601f81018713611926578182fd5b611935878235602084016117af565b91505092959194509250565b60008060408385031215611953578182fd5b61195c83611825565b915060208301358015158114611970578182fd5b809150509250929050565b6000806040838503121561198d578182fd5b61199683611825565b946020939093013593505050565b6000806000606084860312156119b8578283fd5b6119c184611825565b925060208401359150604084013567ffffffffffffffff8111156119e3578182fd5b8401601f810186136119f3578182fd5b611a02868235602084016117af565b9150509250925092565b600060208284031215611a1d578081fd5b813561121181611cfa565b600060208284031215611a39578081fd5b815161121181611cfa565b600060208284031215611a55578081fd5b5035919050565b60008151808452611a74816020860160208601611c22565b601f01601f19169290920160200192915050565b60008351611a9a818460208801611c22565b835190830190611aae818360208801611c22565b01949350505050565b6001600160a01b0385811682528416602082015260408101839052608060608201819052600090611aea90830184611a5c565b9695505050505050565b6020815260006112116020830184611a5c565b60208082526032908201527f4552433732313a207472616e7366657220746f206e6f6e20455243373231526560408201527131b2b4bb32b91034b6b83632b6b2b73a32b960711b606082015260800190565b6020808252818101527f4f776e61626c653a2063616c6c6572206973206e6f7420746865206f776e6572604082015260600190565b60208082526031908201527f4552433732313a207472616e736665722063616c6c6572206973206e6f74206f6040820152701ddb995c881b9bdc88185c1c1c9bdd9959607a1b606082015260800190565b60008219821115611bf257611bf2611cb8565b500190565b600082611c0657611c06611cce565b500490565b600082821015611c1d57611c1d611cb8565b500390565b60005b83811015611c3d578181015183820152602001611c25565b8381111561083b5750506000910152565b600181811c90821680611c6257607f821691505b60208210811415611c8357634e487b7160e01b600052602260045260246000fd5b50919050565b6000600019821415611c9d57611c9d611cb8565b5060010190565b600082611cb357611cb3611cce565b500690565b634e487b7160e01b600052601160045260246000fd5b634e487b7160e01b600052601260045260246000fd5b634e487b7160e01b600052604160045260246000fd5b6001600160e01b03198116811461092257600080fdfe68747470733a2f2f65716d7669692e6769746875622e696f2f6375727365642d776f72642d636c69656e742fa2646970667358221220d07836cf367ca6942bc587e7cb4bac1c5871f214bd0061f9211bf3a38f03482164736f6c63430008040033",
  "linkReferences": {},
  "deployedLinkReferences": {}
}