{
  "_format": "hh-sol-artifact-1",
  "contractName": "CursedWordV3",
  "sourceName": "contracts/CursedWordV3Coins.sol",
  "abi": [
    {
      "inputs": [],
      "stateMutability": "nonpayable",
      "type": "constructor"
    },
    {
      "anonymous": false,
      "inputs": [
        {
          "indexed": true,
          "internalType": "uint256",
          "name": "id",
          "type": "uint256"
        },
        {
          "indexed": false,
          "internalType": "uint256",
          "name": "guessNumber",
          "type": "uint256"
        },
        {
          "indexed": false,
          "internalType": "address",
          "name": "guesser",
          "type": "address"
        },
        {
          "indexed": false,
          "internalType": "bytes",
          "name": "wordGuessed",
          "type": "bytes"
        }
      ],
      "name": "GuessReceived",
      "type": "event"
    },
    {
      "anonymous": false,
      "inputs": [
        {
          "indexed": true,
          "internalType": "uint256",
          "name": "id",
          "type": "uint256"
        },
        {
          "indexed": false,
          "internalType": "uint256",
          "name": "guessNumber",
          "type": "uint256"
        },
        {
          "indexed": false,
          "internalType": "address",
          "name": "guesser",
          "type": "address"
        },
        {
          "indexed": false,
          "internalType": "bytes",
          "name": "wordGuessed",
          "type": "bytes"
        },
        {
          "indexed": false,
          "internalType": "uint16",
          "name": "result",
          "type": "uint16"
        }
      ],
      "name": "GuessResult",
      "type": "event"
    },
    {
      "inputs": [
        {
          "internalType": "uint256",
          "name": "wordId",
          "type": "uint256"
        },
        {
          "internalType": "bytes",
          "name": "guess",
          "type": "bytes"
        }
      ],
      "name": "attempt",
      "outputs": [],
      "stateMutability": "payable",
      "type": "function"
    },
    {
      "inputs": [],
      "name": "contractOwner",
      "outputs": [
        {
          "internalType": "address",
          "name": "",
          "type": "address"
        }
      ],
      "stateMutability": "view",
      "type": "function"
    },
    {
      "inputs": [],
      "name": "cursedWordCoin",
      "outputs": [
        {
          "internalType": "contract CursedWordCoin",
          "name": "",
          "type": "address"
        }
      ],
      "stateMutability": "view",
      "type": "function"
    },
    {
      "inputs": [],
      "name": "gameIsActive",
      "outputs": [
        {
          "internalType": "bool",
          "name": "",
          "type": "bool"
        }
      ],
      "stateMutability": "view",
      "type": "function"
    },
    {
      "inputs": [],
      "name": "id",
      "outputs": [
        {
          "internalType": "uint256",
          "name": "",
          "type": "uint256"
        }
      ],
      "stateMutability": "view",
      "type": "function"
    },
    {
      "inputs": [],
      "name": "numberOfGuesses",
      "outputs": [
        {
          "internalType": "uint256",
          "name": "",
          "type": "uint256"
        }
      ],
      "stateMutability": "view",
      "type": "function"
    },
    {
      "inputs": [
        {
          "internalType": "uint256",
          "name": "wordId",
          "type": "uint256"
        },
        {
          "internalType": "uint256",
          "name": "guessNumber",
          "type": "uint256"
        },
        {
          "internalType": "address payable",
          "name": "guesser",
          "type": "address"
        },
        {
          "internalType": "bytes",
          "name": "wordGuessed",
          "type": "bytes"
        },
        {
          "internalType": "uint16",
          "name": "response",
          "type": "uint16"
        }
      ],
      "name": "respond_to_guess",
      "outputs": [],
      "stateMutability": "payable",
      "type": "function"
    },
    {
      "inputs": [],
      "name": "toggleGame",
      "outputs": [],
      "stateMutability": "nonpayable",
      "type": "function"
    }
  ],
  "bytecode": "0x608060405234801561001057600080fd5b50600180805560006002819055805460ff19169091179055600380546001600160a01b03191673cbc4efe8ccf05a9435089e2f8f68622abbb7642e17905560405161005a90610148565b604051809103906000f080158015610076573d6000803e3d6000fd5b50600460006101000a8154816001600160a01b0302191690836001600160a01b031602179055506100d5604051806060016040528060278152602001611e73602791396004546001600160a01b03166100da602090811b61068f17901c565b6101b9565b61012382826040516024016100f0929190610155565b60408051601f198184030181529190526020810180516001600160e01b0390811663319af33360e01b1790915261012716565b5050565b80516a636f6e736f6c652e6c6f67602083016000808483855afa5050505050565b61116480610d0f83390190565b6040815260008351806040840152815b818110156101825760208187018101516060868401015201610165565b818111156101935782606083860101525b506001600160a01b0393909316602083015250601f91909101601f191601606001919050565b610b47806101c86000396000f3fe60806040526004361061007b5760003560e01c8063ce606ee01161004e578063ce606ee01461010b578063e2784c3a1461012b578063e490e3b614610155578063ed02ad371461016857600080fd5b8063349287f5146100805780637fd60e4214610095578063ad2d7865146100aa578063af640d0f146100e7575b600080fd5b61009361008e3660046108b6565b61017e565b005b3480156100a157600080fd5b50610093610489565b3480156100b657600080fd5b506004546100ca906001600160a01b031681565b6040516001600160a01b0390911681526020015b60405180910390f35b3480156100f357600080fd5b506100fd60015481565b6040519081526020016100de565b34801561011757600080fd5b506003546100ca906001600160a01b031681565b34801561013757600080fd5b506000546101459060ff1681565b60405190151581526020016100de565b610093610163366004610871565b6104e6565b34801561017457600080fd5b506100fd60025481565b6003546001600160a01b031633146101cc5760405162461bcd60e51b815260206004820152600c60248201526b155b985d5d1a1bdc9a5e995960a21b60448201526064015b60405180910390fd5b6102066040518060400160405280601381526020017202932b9b837b739b2903932b1b2b4bb32b21d1606d1b8152508261ffff16336106d8565b8061ffff1661823514156104445760035460009081906001600160a01b0316610230600547610ab7565b604051600081818185875af1925050503d806000811461026c576040519150601f19603f3d011682016040523d82523d6000602084013e610271565b606091505b5091509150816102c35760405162461bcd60e51b815260206004820152601b60248201527f4661696c656420746f2073656e642077696e6e6572204574686572000000000060448201526064016101c3565b600080866001600160a01b03164760405160006040518083038185875af1925050503d8060008114610311576040519150601f19603f3d011682016040523d82523d6000602084013e610316565b606091505b5091509150816103685760405162461bcd60e51b815260206004820152601b60248201527f4661696c656420746f2073656e642077696e6e6572204574686572000000000060448201526064016101c3565b6103a66040518060400160405280601d81526020017f54686520636f727265637420776f726420776173206775657373656421000000815250610724565b6103c7604051806060016040528060248152602001610aee60249139610724565b600480546040516340c10f1960e01b81526001600160a01b038a81169382019390935268056bc75e2d6310000060248201529116906340c10f1990604401600060405180830381600087803b15801561041f57600080fd5b505af1158015610433573d6000803e3d6000fd5b5050505061043f61076a565b505050505b847f24b390cd829042ea5cd3b2edd4ae9fcbee53358018dfccdaceaa27a9d8d914328585858560405161047a9493929190610a21565b60405180910390a25050505050565b6003546001600160a01b031633146104d25760405162461bcd60e51b815260206004820152600c60248201526b155b985d5d1a1bdc9a5e995960a21b60448201526064016101c3565b6000805460ff19811660ff90911615179055565b60005460ff1615156001146105325760405162461bcd60e51b815260206004820152601260248201527147616d65206973206e6f742061637469766560701b60448201526064016101c3565b816001541461058e5760405162461bcd60e51b815260206004820152602260248201527f5468697320776f72642068617320616c7265616479206265656e20736f6c7665604482015261321760f11b60648201526084016101c3565b600480546040516340c10f1960e01b81523392810192909252670de0b6b3a764000060248301526001600160a01b0316906340c10f1990604401600060405180830381600087803b1580156105e257600080fd5b505af11580156105f6573d6000803e3d6000fd5b5050505060016002600082825461060d9190610a93565b9250508190555061064b604051806040016040528060138152602001720273ab6b132b91037b31023bab2b9b9b2b99d1606d1b815250600254610788565b6001547f4744ea29987b6be0c31b96517959090e720d8c7f1d1ab17dba04a333df08a6dd600254338460405161068393929190610a60565b60405180910390a25050565b6106d482826040516024016106a59291906109a2565b60408051601f198184030181529190526020810180516001600160e01b031663319af33360e01b1790526107c9565b5050565b61071f8383836040516024016106f0939291906109ee565b60408051601f198184030181529190526020810180516001600160e01b031663e3849f7960e01b1790526107c9565b505050565b610767816040516024016107389190610988565b60408051601f198184030181529190526020810180516001600160e01b031663104c13eb60e21b1790526107c9565b50565b600180600082825461077c9190610a93565b90915550506000600255565b6106d4828260405160240161079e9291906109cc565b60408051601f198184030181529190526020810180516001600160e01b03166309710a9d60e41b1790525b80516a636f6e736f6c652e6c6f67602083016000808483855afa5050505050565b600082601f8301126107fa578081fd5b813567ffffffffffffffff8082111561081557610815610ad7565b604051601f8301601f19908116603f0116810190828211818310171561083d5761083d610ad7565b81604052838152866020858801011115610855578485fd5b8360208701602083013792830160200193909352509392505050565b60008060408385031215610883578182fd5b82359150602083013567ffffffffffffffff8111156108a0578182fd5b6108ac858286016107ea565b9150509250929050565b600080600080600060a086880312156108cd578081fd5b853594506020860135935060408601356001600160a01b03811681146108f1578182fd5b9250606086013567ffffffffffffffff81111561090c578182fd5b610918888289016107ea565b925050608086013561ffff8116811461092f578182fd5b809150509295509295909350565b60008151808452815b8181101561096257602081850181015186830182015201610946565b818111156109735782602083870101525b50601f01601f19169290920160200192915050565b60208152600061099b602083018461093d565b9392505050565b6040815260006109b5604083018561093d565b905060018060a01b03831660208301529392505050565b6040815260006109df604083018561093d565b90508260208301529392505050565b606081526000610a01606083018661093d565b6020830194909452506001600160a01b0391909116604090910152919050565b8481526001600160a01b0384166020820152608060408201819052600090610a4b9083018561093d565b905061ffff8316606083015295945050505050565b8381526001600160a01b0383166020820152606060408201819052600090610a8a9083018461093d565b95945050505050565b60008219821115610ab257634e487b7160e01b81526011600452602481fd5b500190565b600082610ad257634e487b7160e01b81526012600452602481fd5b500490565b634e487b7160e01b600052604160045260246000fdfe4d696e74696e672031303020636f696e7320666f722077696e6e696e67203a746f6f743aa2646970667358221220bfe151cec6f202cad560e83820d37de9552674c3c8fdd8ad78302bd719b5e08e64736f6c6343000804003360806040523480156200001157600080fd5b506040518060400160405280601081526020016f21bab939b2b2102bb7b9321021b7b4b760811b8152506040518060400160405280600381526020016243574360e81b81525081600390805190602001906200006f929190620000fd565b50805162000085906004906020840190620000fd565b50506005805460ff19169055506200009d33620000a3565b620001e0565b600580546001600160a01b03838116610100818102610100600160a81b031985161790945560405193909204169182907f8be0079c531659141344cd1fd0a4f28419497f9722a3daafe3b4186f6b6457e090600090a35050565b8280546200010b90620001a3565b90600052602060002090601f0160209004810192826200012f57600085556200017a565b82601f106200014a57805160ff19168380011785556200017a565b828001600101855582156200017a579182015b828111156200017a5782518255916020019190600101906200015d565b50620001889291506200018c565b5090565b5b808211156200018857600081556001016200018d565b600181811c90821680620001b857607f821691505b60208210811415620001da57634e487b7160e01b600052602260045260246000fd5b50919050565b610f7480620001f06000396000f3fe608060405234801561001057600080fd5b50600436106101165760003560e01c806370a08231116100a257806395d89b411161007157806395d89b411461022d578063a457c2d714610235578063a9059cbb14610248578063dd62ed3e1461025b578063f2fde38b1461029457600080fd5b806370a08231146101cb578063715018a6146101f45780638456cb59146101fc5780638da5cb5b1461020457600080fd5b8063313ce567116100e9578063313ce5671461018157806339509351146101905780633f4ba83a146101a357806340c10f19146101ad5780635c975abb146101c057600080fd5b806306fdde031461011b578063095ea7b31461013957806318160ddd1461015c57806323b872dd1461016e575b600080fd5b6101236102a7565b6040516101309190610e4b565b60405180910390f35b61014c610147366004610dd7565b610339565b6040519015158152602001610130565b6002545b604051908152602001610130565b61014c61017c366004610d9c565b61034f565b60405160128152602001610130565b61014c61019e366004610dd7565b6103fe565b6101ab61043a565b005b6101ab6101bb366004610dd7565b610474565b60055460ff1661014c565b6101606101d9366004610d49565b6001600160a01b031660009081526020819052604090205490565b6101ab61051e565b6101ab610558565b60055461010090046001600160a01b03166040516001600160a01b039091168152602001610130565b610123610590565b61014c610243366004610dd7565b61059f565b61014c610256366004610dd7565b610638565b610160610269366004610d6a565b6001600160a01b03918216600090815260016020908152604080832093909416825291909152205490565b6101ab6102a2366004610d49565b610645565b6060600380546102b690610f03565b80601f01602080910402602001604051908101604052809291908181526020018280546102e290610f03565b801561032f5780601f106103045761010080835404028352916020019161032f565b820191906000526020600020905b81548152906001019060200180831161031257829003601f168201915b5050505050905090565b60006103463384846106e6565b50600192915050565b600061035c84848461080a565b6001600160a01b0384166000908152600160209081526040808320338452909152902054828110156103e65760405162461bcd60e51b815260206004820152602860248201527f45524332303a207472616e7366657220616d6f756e74206578636565647320616044820152676c6c6f77616e636560c01b60648201526084015b60405180910390fd5b6103f385338584036106e6565b506001949350505050565b3360008181526001602090815260408083206001600160a01b03871684529091528120549091610346918590610435908690610edf565b6106e6565b6005546001600160a01b0361010090910416331461046a5760405162461bcd60e51b81526004016103dd90610eaa565b6104726109e4565b565b6005546001600160a01b036101009091041633146104a45760405162461bcd60e51b81526004016103dd90610eaa565b6104d96040518060400160405280601381526020017201e9e9ea1aba19e9e9e9026b4b73a34b7339d1606d1b81525082610a77565b6105106040518060400160405280601581526020017401e9e9ea1aba19e9e9e9021b7b4b739903337b91d1605d1b81525083610abc565b61051a8282610b01565b5050565b6005546001600160a01b0361010090910416331461054e5760405162461bcd60e51b81526004016103dd90610eaa565b6104726000610bec565b6005546001600160a01b036101009091041633146105885760405162461bcd60e51b81526004016103dd90610eaa565b610472610c46565b6060600480546102b690610f03565b3360009081526001602090815260408083206001600160a01b0386168452909152812054828110156106215760405162461bcd60e51b815260206004820152602560248201527f45524332303a2064656372656173656420616c6c6f77616e63652062656c6f77604482015264207a65726f60d81b60648201526084016103dd565b61062e33858584036106e6565b5060019392505050565b600061034633848461080a565b6005546001600160a01b036101009091041633146106755760405162461bcd60e51b81526004016103dd90610eaa565b6001600160a01b0381166106da5760405162461bcd60e51b815260206004820152602660248201527f4f776e61626c653a206e6577206f776e657220697320746865207a65726f206160448201526564647265737360d01b60648201526084016103dd565b6106e381610bec565b50565b6001600160a01b0383166107485760405162461bcd60e51b8152602060048201526024808201527f45524332303a20617070726f76652066726f6d20746865207a65726f206164646044820152637265737360e01b60648201526084016103dd565b6001600160a01b0382166107a95760405162461bcd60e51b815260206004820152602260248201527f45524332303a20617070726f766520746f20746865207a65726f206164647265604482015261737360f01b60648201526084016103dd565b6001600160a01b0383811660008181526001602090815260408083209487168084529482529182902085905590518481527f8c5be1e5ebec7d5bd14f71427d1e84f3dd0314c0f7b2291e5b200ac8c7c3b925910160405180910390a3505050565b6001600160a01b03831661086e5760405162461bcd60e51b815260206004820152602560248201527f45524332303a207472616e736665722066726f6d20746865207a65726f206164604482015264647265737360d81b60648201526084016103dd565b6001600160a01b0382166108d05760405162461bcd60e51b815260206004820152602360248201527f45524332303a207472616e7366657220746f20746865207a65726f206164647260448201526265737360e81b60648201526084016103dd565b6108db838383610cc1565b6001600160a01b038316600090815260208190526040902054818110156109535760405162461bcd60e51b815260206004820152602660248201527f45524332303a207472616e7366657220616d6f756e7420657863656564732062604482015265616c616e636560d01b60648201526084016103dd565b6001600160a01b0380851660009081526020819052604080822085850390559185168152908120805484929061098a908490610edf565b92505081905550826001600160a01b0316846001600160a01b03167fddf252ad1be2c89b69c2b068fc378daa952ba7f163c4a11628f55a4df523b3ef846040516109d691815260200190565b60405180910390a350505050565b60055460ff16610a2d5760405162461bcd60e51b815260206004820152601460248201527314185d5cd8589b194e881b9bdd081c185d5cd95960621b60448201526064016103dd565b6005805460ff191690557f5db9ee0a495bf2e6ff9c91a7834c1ba4fdd244a5e8aa4e537bd38aeae4b073aa335b6040516001600160a01b03909116815260200160405180910390a1565b61051a8282604051602401610a8d929190610e88565b60408051601f198184030181529190526020810180516001600160e01b03166309710a9d60e41b179052610d0c565b61051a8282604051602401610ad2929190610e5e565b60408051601f198184030181529190526020810180516001600160e01b031663319af33360e01b179052610d0c565b6001600160a01b038216610b575760405162461bcd60e51b815260206004820152601f60248201527f45524332303a206d696e7420746f20746865207a65726f20616464726573730060448201526064016103dd565b610b6360008383610cc1565b8060026000828254610b759190610edf565b90915550506001600160a01b03821660009081526020819052604081208054839290610ba2908490610edf565b90915550506040518181526001600160a01b038316906000907fddf252ad1be2c89b69c2b068fc378daa952ba7f163c4a11628f55a4df523b3ef9060200160405180910390a35050565b600580546001600160a01b03838116610100818102610100600160a81b031985161790945560405193909204169182907f8be0079c531659141344cd1fd0a4f28419497f9722a3daafe3b4186f6b6457e090600090a35050565b60055460ff1615610c8c5760405162461bcd60e51b815260206004820152601060248201526f14185d5cd8589b194e881c185d5cd95960821b60448201526064016103dd565b6005805460ff191660011790557f62e78cea01bee320cd4e420270b5ea74000d11b0c9f74754ebdbfc544b05a258610a5a3390565b60055460ff1615610d075760405162461bcd60e51b815260206004820152601060248201526f14185d5cd8589b194e881c185d5cd95960821b60448201526064016103dd565b505050565b80516a636f6e736f6c652e6c6f67602083016000808483855afa5050505050565b80356001600160a01b0381168114610d4457600080fd5b919050565b600060208284031215610d5a578081fd5b610d6382610d2d565b9392505050565b60008060408385031215610d7c578081fd5b610d8583610d2d565b9150610d9360208401610d2d565b90509250929050565b600080600060608486031215610db0578081fd5b610db984610d2d565b9250610dc760208501610d2d565b9150604084013590509250925092565b60008060408385031215610de9578182fd5b610df283610d2d565b946020939093013593505050565b60008151808452815b81811015610e2557602081850181015186830182015201610e09565b81811115610e365782602083870101525b50601f01601f19169290920160200192915050565b602081526000610d636020830184610e00565b604081526000610e716040830185610e00565b905060018060a01b03831660208301529392505050565b604081526000610e9b6040830185610e00565b90508260208301529392505050565b6020808252818101527f4f776e61626c653a2063616c6c6572206973206e6f7420746865206f776e6572604082015260600190565b60008219821115610efe57634e487b7160e01b81526011600452602481fd5b500190565b600181811c90821680610f1757607f821691505b60208210811415610f3857634e487b7160e01b600052602260045260246000fd5b5091905056fea2646970667358221220cb1adbe11dfb34c5dbe69d2602625e3f5c455111cc242f5e00b95428c86ae00664736f6c634300080400334e657720636f696e2063726561746564212041646472657373206f6620636f6e74726163743a20",
  "linkReferences": {},
  "deployedLinkReferences": {}
}