{
  "_format": "hh-sol-artifact-1",
  "contractName": "CursedWordV2",
  "sourceName": "contracts/CursedWordV2.sol",
  "abi": [
    {
      "inputs": [],
      "stateMutability": "nonpayable",
      "type": "constructor"
    },
    {
      "anonymous": false,
      "inputs": [
        {
          "indexed": true,
          "internalType": "uint256",
          "name": "id",
          "type": "uint256"
        },
        {
          "indexed": false,
          "internalType": "uint256",
          "name": "guessNumber",
          "type": "uint256"
        },
        {
          "indexed": false,
          "internalType": "address",
          "name": "guesser",
          "type": "address"
        },
        {
          "indexed": false,
          "internalType": "bytes",
          "name": "wordGuessed",
          "type": "bytes"
        }
      ],
      "name": "GuessReceived",
      "type": "event"
    },
    {
      "anonymous": false,
      "inputs": [
        {
          "indexed": true,
          "internalType": "uint256",
          "name": "id",
          "type": "uint256"
        },
        {
          "indexed": false,
          "internalType": "uint256",
          "name": "guessNumber",
          "type": "uint256"
        },
        {
          "indexed": false,
          "internalType": "address",
          "name": "guesser",
          "type": "address"
        },
        {
          "indexed": false,
          "internalType": "bytes",
          "name": "wordGuessed",
          "type": "bytes"
        },
        {
          "indexed": false,
          "internalType": "uint16",
          "name": "result",
          "type": "uint16"
        }
      ],
      "name": "GuessResult",
      "type": "event"
    },
    {
      "inputs": [
        {
          "internalType": "uint256",
          "name": "wordId",
          "type": "uint256"
        },
        {
          "internalType": "bytes",
          "name": "guess",
          "type": "bytes"
        }
      ],
      "name": "attempt",
      "outputs": [],
      "stateMutability": "payable",
      "type": "function"
    },
    {
      "inputs": [],
      "name": "gameIsActive",
      "outputs": [
        {
          "internalType": "bool",
          "name": "",
          "type": "bool"
        }
      ],
      "stateMutability": "view",
      "type": "function"
    },
    {
      "inputs": [],
      "name": "id",
      "outputs": [
        {
          "internalType": "uint256",
          "name": "",
          "type": "uint256"
        }
      ],
      "stateMutability": "view",
      "type": "function"
    },
    {
      "inputs": [],
      "name": "numberOfGuesses",
      "outputs": [
        {
          "internalType": "uint256",
          "name": "",
          "type": "uint256"
        }
      ],
      "stateMutability": "view",
      "type": "function"
    },
    {
      "inputs": [
        {
          "internalType": "uint256",
          "name": "wordId",
          "type": "uint256"
        },
        {
          "internalType": "uint256",
          "name": "guessNumber",
          "type": "uint256"
        },
        {
          "internalType": "address",
          "name": "guesser",
          "type": "address"
        },
        {
          "internalType": "bytes",
          "name": "wordGuessed",
          "type": "bytes"
        },
        {
          "internalType": "uint16",
          "name": "response",
          "type": "uint16"
        }
      ],
      "name": "respond_to_guess",
      "outputs": [],
      "stateMutability": "nonpayable",
      "type": "function"
    },
    {
      "inputs": [],
      "name": "toggleGame",
      "outputs": [],
      "stateMutability": "nonpayable",
      "type": "function"
    }
  ],
  "bytecode": "0x608060405234801561001057600080fd5b50600180805560006002819055805460ff191690911790556106ba806100376000396000f3fe6080604052600436106100555760003560e01c8063349287f51461005a5780637fd60e421461007c578063af640d0f146100a0578063e2784c3a146100c9578063e490e3b6146100f3578063ed02ad3714610106575b600080fd5b34801561006657600080fd5b5061007a6100753660046104ca565b61011c565b005b34801561008857600080fd5b5061007a6000805460ff19811660ff90911615179055565b3480156100ac57600080fd5b506100b660015481565b6040519081526020015b60405180910390f35b3480156100d557600080fd5b506000546100e39060ff1681565b60405190151581526020016100c0565b61007a610101366004610485565b6101ee565b34801561011257600080fd5b506100b660025481565b6101556040518060400160405280601381526020017202932b9b837b739b2903932b1b2b4bb32b21d1606d1b8152508261ffff16610330565b8061ffff1661823514156101a9576101a16040518060400160405280601d81526020017f54686520636f727265637420776f726420776173206775657373656421000000815250610379565b6101a96103bf565b847f24b390cd829042ea5cd3b2edd4ae9fcbee53358018dfccdaceaa27a9d8d91432858585856040516101df949392919061060b565b60405180910390a25050505050565b60005460ff16151560011461023f5760405162461bcd60e51b815260206004820152601260248201527147616d65206973206e6f742061637469766560701b60448201526064015b60405180910390fd5b816001541461029b5760405162461bcd60e51b815260206004820152602260248201527f5468697320776f72642068617320616c7265616479206265656e20736f6c7665604482015261321760f11b6064820152608401610236565b6001600260008282546102ae919061064a565b925050819055506102ec604051806040016040528060138152602001720273ab6b132b91037b31023bab2b9b9b2b99d1606d1b815250600254610330565b6001547f4744ea29987b6be0c31b96517959090e720d8c7f1d1ab17dba04a333df08a6dd6002543384604051610324939291906105d8565b60405180910390a25050565b61037582826040516024016103469291906105b6565b60408051601f198184030181529190526020810180516001600160e01b03166309710a9d60e41b1790526103dd565b5050565b6103bc8160405160240161038d919061059c565b60408051601f198184030181529190526020810180516001600160e01b031663104c13eb60e21b1790526103dd565b50565b60018060008282546103d1919061064a565b90915550506000600255565b80516a636f6e736f6c652e6c6f67602083016000808483855afa5050505050565b600082601f83011261040e578081fd5b813567ffffffffffffffff808211156104295761042961066e565b604051601f8301601f19908116603f011681019082821181831017156104515761045161066e565b81604052838152866020858801011115610469578485fd5b8360208701602083013792830160200193909352509392505050565b60008060408385031215610497578182fd5b82359150602083013567ffffffffffffffff8111156104b4578182fd5b6104c0858286016103fe565b9150509250929050565b600080600080600060a086880312156104e1578081fd5b853594506020860135935060408601356001600160a01b0381168114610505578182fd5b9250606086013567ffffffffffffffff811115610520578182fd5b61052c888289016103fe565b925050608086013561ffff81168114610543578182fd5b809150509295509295909350565b60008151808452815b818110156105765760208185018101518683018201520161055a565b818111156105875782602083870101525b50601f01601f19169290920160200192915050565b6020815260006105af6020830184610551565b9392505050565b6040815260006105c96040830185610551565b90508260208301529392505050565b8381526001600160a01b038316602082015260606040820181905260009061060290830184610551565b95945050505050565b8481526001600160a01b038416602082015260806040820181905260009061063590830185610551565b905061ffff8316606083015295945050505050565b6000821982111561066957634e487b7160e01b81526011600452602481fd5b500190565b634e487b7160e01b600052604160045260246000fdfea2646970667358221220220b3cefe0dd3e756ffdaf7078185a2a65409856a0e186178651589ca0c3c8b864736f6c63430008040033",
  "linkReferences": {},
  "deployedLinkReferences": {}
}