{
  "_format": "hh-sol-artifact-1",
  "contractName": "CursedWordV2",
  "sourceName": "contracts/CursedWordV2.sol",
  "abi": [
    {
      "inputs": [],
      "stateMutability": "nonpayable",
      "type": "constructor"
    },
    {
      "anonymous": false,
      "inputs": [
        {
          "indexed": true,
          "internalType": "uint256",
          "name": "id",
          "type": "uint256"
        },
        {
          "indexed": false,
          "internalType": "uint256",
          "name": "guessNumber",
          "type": "uint256"
        },
        {
          "indexed": false,
          "internalType": "address",
          "name": "guesser",
          "type": "address"
        },
        {
          "indexed": false,
          "internalType": "bytes",
          "name": "wordGuessed",
          "type": "bytes"
        }
      ],
      "name": "GuessReceived",
      "type": "event"
    },
    {
      "anonymous": false,
      "inputs": [
        {
          "indexed": true,
          "internalType": "uint256",
          "name": "id",
          "type": "uint256"
        },
        {
          "indexed": false,
          "internalType": "uint256",
          "name": "guessNumber",
          "type": "uint256"
        },
        {
          "indexed": false,
          "internalType": "address",
          "name": "guesser",
          "type": "address"
        },
        {
          "indexed": false,
          "internalType": "bytes",
          "name": "wordGuessed",
          "type": "bytes"
        },
        {
          "indexed": false,
          "internalType": "uint16",
          "name": "result",
          "type": "uint16"
        }
      ],
      "name": "GuessResult",
      "type": "event"
    },
    {
      "inputs": [
        {
          "internalType": "uint256",
          "name": "wordId",
          "type": "uint256"
        },
        {
          "internalType": "bytes",
          "name": "guess",
          "type": "bytes"
        }
      ],
      "name": "attempt",
      "outputs": [],
      "stateMutability": "payable",
      "type": "function"
    },
    {
      "inputs": [],
      "name": "contractOwner",
      "outputs": [
        {
          "internalType": "address",
          "name": "",
          "type": "address"
        }
      ],
      "stateMutability": "view",
      "type": "function"
    },
    {
      "inputs": [],
      "name": "gameIsActive",
      "outputs": [
        {
          "internalType": "bool",
          "name": "",
          "type": "bool"
        }
      ],
      "stateMutability": "view",
      "type": "function"
    },
    {
      "inputs": [],
      "name": "id",
      "outputs": [
        {
          "internalType": "uint256",
          "name": "",
          "type": "uint256"
        }
      ],
      "stateMutability": "view",
      "type": "function"
    },
    {
      "inputs": [],
      "name": "numberOfGuesses",
      "outputs": [
        {
          "internalType": "uint256",
          "name": "",
          "type": "uint256"
        }
      ],
      "stateMutability": "view",
      "type": "function"
    },
    {
      "inputs": [
        {
          "internalType": "uint256",
          "name": "wordId",
          "type": "uint256"
        },
        {
          "internalType": "uint256",
          "name": "guessNumber",
          "type": "uint256"
        },
        {
          "internalType": "address payable",
          "name": "guesser",
          "type": "address"
        },
        {
          "internalType": "bytes",
          "name": "wordGuessed",
          "type": "bytes"
        },
        {
          "internalType": "uint16",
          "name": "response",
          "type": "uint16"
        }
      ],
      "name": "respond_to_guess",
      "outputs": [],
      "stateMutability": "payable",
      "type": "function"
    },
    {
      "inputs": [],
      "name": "toggleGame",
      "outputs": [],
      "stateMutability": "nonpayable",
      "type": "function"
    }
  ],
  "bytecode": "0x608060405234801561001057600080fd5b50600180805560006002819055805460ff19169091179055600380546001600160a01b03191673cbc4efe8ccf05a9435089e2f8f68622abbb7642e1790556109908061005d6000396000f3fe6080604052600436106100705760003560e01c8063ce606ee01161004e578063ce606ee0146100c8578063e2784c3a14610100578063e490e3b61461012a578063ed02ad371461013d57600080fd5b8063349287f5146100755780637fd60e421461008a578063af640d0f1461009f575b600080fd5b61008861008336600461074d565b610153565b005b34801561009657600080fd5b506100886103cd565b3480156100ab57600080fd5b506100b560015481565b6040519081526020015b60405180910390f35b3480156100d457600080fd5b506003546100e8906001600160a01b031681565b6040516001600160a01b0390911681526020016100bf565b34801561010c57600080fd5b5060005461011a9060ff1681565b60405190151581526020016100bf565b610088610138366004610708565b61042a565b34801561014957600080fd5b506100b560025481565b6003546001600160a01b031633146101a15760405162461bcd60e51b815260206004820152600c60248201526b155b985d5d1a1bdc9a5e995960a21b60448201526064015b60405180910390fd5b6101db6040518060400160405280601381526020017202932b9b837b739b2903932b1b2b4bb32b21d1606d1b8152508261ffff1633610567565b8061ffff1661823514156103885760035460009081906001600160a01b0316610205600547610924565b604051600081818185875af1925050503d8060008114610241576040519150601f19603f3d011682016040523d82523d6000602084013e610246565b606091505b5091509150816102985760405162461bcd60e51b815260206004820152601b60248201527f4661696c656420746f2073656e642077696e6e657220457468657200000000006044820152606401610198565b600080866001600160a01b03164760405160006040518083038185875af1925050503d80600081146102e6576040519150601f19603f3d011682016040523d82523d6000602084013e6102eb565b606091505b50915091508161033d5760405162461bcd60e51b815260206004820152601b60248201527f4661696c656420746f2073656e642077696e6e657220457468657200000000006044820152606401610198565b61037b6040518060400160405280601d81526020017f54686520636f727265637420776f7264207761732067756573736564210000008152506105b3565b6103836105f9565b505050505b847f24b390cd829042ea5cd3b2edd4ae9fcbee53358018dfccdaceaa27a9d8d91432858585856040516103be949392919061088e565b60405180910390a25050505050565b6003546001600160a01b031633146104165760405162461bcd60e51b815260206004820152600c60248201526b155b985d5d1a1bdc9a5e995960a21b6044820152606401610198565b6000805460ff19811660ff90911615179055565b60005460ff1615156001146104765760405162461bcd60e51b815260206004820152601260248201527147616d65206973206e6f742061637469766560701b6044820152606401610198565b81600154146104d25760405162461bcd60e51b815260206004820152602260248201527f5468697320776f72642068617320616c7265616479206265656e20736f6c7665604482015261321760f11b6064820152608401610198565b6001600260008282546104e59190610900565b92505081905550610523604051806040016040528060138152602001720273ab6b132b91037b31023bab2b9b9b2b99d1606d1b815250600254610617565b6001547f4744ea29987b6be0c31b96517959090e720d8c7f1d1ab17dba04a333df08a6dd600254338460405161055b939291906108cd565b60405180910390a25050565b6105ae83838360405160240161057f9392919061085b565b60408051601f198184030181529190526020810180516001600160e01b031663e3849f7960e01b179052610660565b505050565b6105f6816040516024016105c7919061081f565b60408051601f198184030181529190526020810180516001600160e01b031663104c13eb60e21b179052610660565b50565b600180600082825461060b9190610900565b90915550506000600255565b61065c828260405160240161062d929190610839565b60408051601f198184030181529190526020810180516001600160e01b03166309710a9d60e41b179052610660565b5050565b80516a636f6e736f6c652e6c6f67602083016000808483855afa5050505050565b600082601f830112610691578081fd5b813567ffffffffffffffff808211156106ac576106ac610944565b604051601f8301601f19908116603f011681019082821181831017156106d4576106d4610944565b816040528381528660208588010111156106ec578485fd5b8360208701602083013792830160200193909352509392505050565b6000806040838503121561071a578182fd5b82359150602083013567ffffffffffffffff811115610737578182fd5b61074385828601610681565b9150509250929050565b600080600080600060a08688031215610764578081fd5b853594506020860135935060408601356001600160a01b0381168114610788578182fd5b9250606086013567ffffffffffffffff8111156107a3578182fd5b6107af88828901610681565b925050608086013561ffff811681146107c6578182fd5b809150509295509295909350565b60008151808452815b818110156107f9576020818501810151868301820152016107dd565b8181111561080a5782602083870101525b50601f01601f19169290920160200192915050565b60208152600061083260208301846107d4565b9392505050565b60408152600061084c60408301856107d4565b90508260208301529392505050565b60608152600061086e60608301866107d4565b6020830194909452506001600160a01b0391909116604090910152919050565b8481526001600160a01b03841660208201526080604082018190526000906108b8908301856107d4565b905061ffff8316606083015295945050505050565b8381526001600160a01b03831660208201526060604082018190526000906108f7908301846107d4565b95945050505050565b6000821982111561091f57634e487b7160e01b81526011600452602481fd5b500190565b60008261093f57634e487b7160e01b81526012600452602481fd5b500490565b634e487b7160e01b600052604160045260246000fdfea264697066735822122060eecb71b5b33832a0a56b49251686ab4a6640138c115bcbc1bff390bfb7391864736f6c63430008040033",
  "linkReferences": {},
  "deployedLinkReferences": {}
}